:020000040800F2
:10000000800E00203D010008B9160008811000088C
:1000100000000000000000000000000000000000E0
:10002000000000000000000000000000C1180008EF
:100030000000000000000000A5170008291A0008B1
:100040006D010008000000006D0100086D0100084E
:100050006D0100086D0100086D0100086D010008C8
:10006000000000006D0100086D0100086D0100082E
:100070006D0100086D010008B51A000800000000BD
:100080006D01000800000000000000006D01000884
:100090006D0100086D0100086D0100086D01000888
:1000A0006D0100086D0100086D0100086D01000878
:1000B0006D01000800F002F800F030F80CA030C824
:1000C000083824182D18A246671EAB4654465D46D4
:1000D000AC4201D100F022F87E460F3E0FCCB6466E
:1000E0000126334200D0FB1AA246AB4633431847E1
:1000F000B82F0000D82F0000002300240025002680
:10010000103A01D378C1FBD8520700D330C100D5D3
:100110000B6070471FB51FBD10B510BD00F009FC86
:100120001146FFF7F7FF01F06BFF00F021FC03B46D
:10013000FFF7F2FF03BC00F027FC00000F4880F33C
:1001400008880F480168090E0E4A914205D10E48F1
:100150000E4901600E480F4901600F4880470F4863
:100160000047FEE7FEE7FEE7FEE7FEE7FEE70000EA
:100170000B480C490C4A0D4B70470000800E0020C4
:10018000040000001F0000001810024001000000E1
:100190000000014000000000391A0008B500000806
:1001A00080080020800E0020800A0020800A0020A5
:1001B000002203098B422CD3030A8B4211D3002364
:1001C0009C464EE003460B433CD4002243088B423E
:1001D00031D303098B421CD3030A8B4201D39446CB
:1001E0003FE0C3098B4201D3CB01C01A52418309BE
:1001F0008B4201D38B01C01A524143098B4201D378
:100200004B01C01A524103098B4201D30B01C01AA2
:100210005241C3088B4201D3CB00C01A524183081C
:100220008B4201D38B00C01A524143088B4201D349
:100230004B00C01A5241411A00D2014652411046A9
:1002400070475DE0CA0F00D04942031000D340421E
:10025000534000229C4603098B422DD3030A8B4254
:1002600012D3FC22890112BA030A8B420CD38901F2
:1002700092118B4208D3890192118B4204D38901D8
:100280003AD0921100E08909C3098B4201D3CB0116
:10029000C01A524183098B4201D38B01C01A5241CB
:1002A00043098B4201D34B01C01A524103098B42CF
:1002B00001D30B01C01A5241C3088B4201D3CB00BA
:1002C000C01A524183088B4201D38B00C01A52419D
:1002D000D9D243088B4201D34B00C01A5241411A74
:1002E00000D20146634652415B10104601D34042A2
:1002F000002B00D54942704763465B1000D3404253
:1003000001B50020C046C04602BD70477047704727
:10031000F0B50C46871A9C410D46861A9D4103D2C2
:10032000C01BA141D21963410D0D1F0DC94EEC1B1D
:10033000AE435CD07F057F0D0026002F51D02D05E8
:10034000AC46A943DD020123ED0A1B051D43202312
:100350001B1B24D41746E740381871412F46E7404D
:10036000CC199D402818314661410C0D27D16144BC
:100370009A4013D50023401C594152000ED1400829
:10038000400001224B005205D34207D3052040070D
:10039000C14201D5B04900E0B0493046F0BD6B0024
:1003A000002A00D001229A181F23203C1B1B01D5D4
:1003B000002302E0E540281871410C0DD7D001243C
:1003C00024050919C407CD0740084908E40F28434C
:1003D0006144002CD5D00024401C61419A40D0D10A
:1003E000CDE76A05520DD9D1C90FC907D5E79C4D94
:1003F0004E00002801D0012400E0002434195F00E1
:10040000002A01D0012600E00026BE19954FAC421B
:100410000CD8AE420AD8B44206D001256D05EC4294
:10042000BCD010461946F0BD9942FCD00020394698
:10043000F0BDF0B51FB40C460F46811A9F4125460A
:10044000861A9D4106D20125ED076F40401ABC4136
:1004500052187B41210D1E0D8D1BAC467D4D8D43E9
:100460007ED075056D0D7CD00D05AE46AC431B03EB
:100470001B0B794D52429D41202366469B1B14D392
:100480001746F740381800260090744160462F4602
:100490000741E41900989D402818664116D471461A
:1004A00071189A4025D5012320E093182A466A4105
:1004B0005200002B00D0521C1E23203E9B1B002B01
:1004C00061DD3541EE1728186641E8D50018764100
:1004D0005B1C9A4000D3401C4B05F3181524E340E5
:1004E00010D3002B52D071467118D30FC01802D30D
:1004F000491C05B0F0BD0123DB079A42F9D1400841
:100500004000F6E701225205B21801D1002853D06D
:100510000123CC0ADB029943891E002A08D1020C70
:1005200003D0020C0004103902E0024600202039FA
:100530000023550B05D112020823550B01D152019E
:100540000D23550C01D112011B1DD50C01D19200B8
:100550009B1C150D01D152005B1C2025EE1A01E0F9
:100560002CE022E00546F54015439840CA1AE10701
:1005700069181305C918002ABBDA032040070818B8
:10058000C10FC9070FE071466118B2E7F1074008D3
:100590000843711071444A000CD001235B059A4254
:1005A000A7D2C90FC9070020A3E74905490D26D1E5
:1005B000002001E00028F4D100219AE7284D6600D0
:1005C000002801D0012100E0002171185F00002AFD
:1005D00001D0012600E00026BE19224FA94210D802
:1005E000AE420ED8B14208D001256D05E94206D0D1
:1005F0001946A802414010467BE79C4201D02146A3
:1006000077E70020394674E710B50C465C4005D505
:100610000124E4076340FFF70CFF10BDFFF778FEED
:1006200010BD30B40C465C4004D50124E40763409F
:1006300030BC6DE630BCFCE670B50124E4076140D7
:100640000D465D4002D4FFF763FE70BD6340FFF7C7
:10065000F0FE70BDFF0700000000F0FF0000F07F1B
:100660000000E0FF0000F87F30B50346CA02400DED
:100670001043164D164C0A1502D02043002A06DB03
:10068000AA1A002A12DDD040FF2A0BDC30BD520529
:10069000520D01D140004008AA1A07D4D040404270
:1006A000FF2A01DD002030BD0028FCDD4A00002BC0
:1006B00001D0012000E00020101801225205D04294
:1006C000F0D8C817C043604030BD00001E040000D1
:1006D000000000800121C9050123411842001B06CA
:1006E000D3185B0E0AD0C1100722D2068918400722
:1006F0005242D14201D5520089187047090208D5EB
:100700000146002A03D0C10FC907002070471046D8
:100710007047420202D000200249704707210905B4
:100720000143F4E70000F87FF0B5FF252D04C6096A
:10073000C209FF2704462E400137CB093E434840FB
:100740002A402B400746002A6BD0002B69D0AA42D2
:1007500067D0AB4265D0002800DA32460125ED05AE
:1007600029432C4309022002090AD21A4B0C7F2488
:10077000E31A434C000A7C44E35C7D2424041219F0
:1007800014145B00A218884201D3521C00E0400000
:1007900049420C465C4324115C43DB016415E318B9
:1007A000040A5C43C502200D0C4644436419250A23
:1007B0005D432303EC0C0D46654300030019EB1861
:1007C0004C42A34201D35B18401CD4052018002BD7
:1007D00007D05B00C91804D3401C002901D1400890
:1007E00040003F2189048A4209D3002A08DC11060F
:1007F000090F04D0032149074018C00FC007F0BDFE
:1008000001224100120689187F2252069142F6D237
:1008100005214907C84201D59010F0BDFF20C00551
:10082000F0BD002F00DA32461648AA4207D2AB428A
:1008300005D21902090E17D0F80FC007F0BDFF2529
:1008400063002D06AB42F9D84900A942F6D8AB4265
:1008500001D1A942F2D0A94201D1002101E06100F9
:100860004908D0050843F0BD1102090EFBD0FF2056
:100870000243D005F0BD0A460146104654E7000089
:10088000EE2800000000C07F10B501469E24000243
:10089000CA15A307002A02D01843002A04DBA21AB3
:1008A000002A0CDDD04010BD1206120E01D140000E
:1008B0004008A21A03D4D04040420028F3DDFF22B2
:1008C00048001206904201D9002010BDC817C0434D
:1008D000584010BD1F22030C02D10F2200041CD06F
:1008E000030E01D10002083A030F01D10001121FCB
:1008F000830F01D18000921E002801DB4000521EB0
:10090000D2055118021251181922904004D3491CE3
:10091000002801D14908490008467047C10FC9079E
:1009200000D04042012292071143D3E701218907F9
:10093000D0E7754600F024F8AE46050069465346F8
:10094000C008C000854618B020B5FFF711FC60BC98
:1009500000274908B6460026C0C5C0C5C0C5C0C5E9
:10096000C0C5C0C5C0C5C0C5403D49008D46704723
:1009700010B50446C046C0462046FFF7D8FB10BD60
:10098000004870472008002001491820ABBEFEE750
:1009900026000200704770B58D180478401CA2072D
:1009A000920F01D10278401C231106D10378401C1C
:1009B00003E00678401C0E70491C521EF9D1002B32
:1009C00015D002780C2634408A1A401C0C2C03D017
:1009D000A401121B9B1C08E004782402121B401C7B
:1009E000F8E714780C70491C521C5B1EF9D5A9421B
:1009F000D3D3002070BD000010B52021054800F0C1
:100A0000E5FA642001F0CEFA2021024800F0DCFA79
:100A100010BD0000000400481CB50121480400F08E
:100A2000C3FE0121880400F0BFFE01216846017168
:100A300000218171F82000906846C1710321417145
:100A400069460920C00600F04BFA00216846017192
:100A50008171012000906846C17141716946092089
:100A6000C00600F03DFA0021684601718171042042
:100A700000906846C1710321417169460920C00692
:100A800000F02EFA012168460171002181710220D7
:100A900000906846C1710321417169460920C00672
:100AA00000F01EFA02210920C00600F08DFA002194
:100AB0006846017181718020009002216846C171F1
:100AC0000321417169463D4800F00AFA0021684659
:100AD000017181710120C002009002216846C1713C
:100AE0000321417169460920C00600F0F9F901218E
:100AF00068460171002181712120800200906846C2
:100B0000C1710321417169460920C00600F0E8F96E
:100B100001216846017100218171482000906846DA
:100B2000C171032141716946244800F0D9F90121BE
:100B30006846017100218171202000906846C171D2
:100B40000321417169461D4800F0CAF90221684637
:100B5000017100218171032000906846C171032159
:100B600041716946154800F0BBF901220021134884
:100B700000F0FEF901221146104800F0F9F90121B8
:100B800068460171002181710320000200906846CF
:100B9000C171417169460920C00600F0A1F9012127
:100BA0006846017100218171102000906846C17172
:100BB00041716946014800F093F91CBD00040048EA
:100BC00010B57D21C9000E480068FFF7F1FA044610
:100BD000601E0C49884200D90CE0601E0A49486139
:100BE0000321081F00F0A2FD0020074988610720AB
:100BF000086100BFFFF710FF01F05AF910BD0000B7
:100C000000000020FFFFFF0000E000E070B50024BE
:100C10001F48807A1F4908701D4804790A21204620
:100C2000FFF7D0FA41B21B4881700A212046FFF736
:100C3000C9FA48B2174948701548C4887D21C900CF
:100C40002046FFF7BFFA41B2124881717D21C900E9
:100C50002046FFF7B7FA0D4664212846FFF7B2FA9F
:100C600041B20C48417164212046FFF7ABFA0D46B2
:100C70000A212846FFF7A6FA41B2064801710A2167
:100C80002046FFF79FFA48B20249C87070BD0000C5
:100C9000FC070020B507002012480078124988722E
:100CA000104880780A2148430E49497840180E4977
:100CB00008710C48062141567D20C000484309496F
:100CC00005228A5664214A43821806480421415667
:100CD0000A2041435018034903228A5680180249CA
:100CE000C8807047B5070020FC07002070B50025BC
:100CF0000026002402210920C00600F065F900BF8B
:100D000004210920C00600F055F90028F8D100247C
:100D10001BE06D0002210920C00600F057F900BF5A
:100D200000BF00BF04210920C00600F043F90646B9
:100D300028463043054602210920C00600F044F948
:100D400000BF00BF00BF601CC4B2182CE1DB002450
:100D500011E002210920C00600F038F900BF00BFF1
:100D600000BF02210920C00600F02EF900BF00BF1D
:100D700000BF601CC4B2032CEBDB284670BD000032
:100D80000149C860704700000020024030B50446A9
:100D900004250B20000400F08FF80546042D17D120
:100DA0000C480069022108430A4908610846446169
:100DB000006940210843074908610B20000400F046
:100DC0007BF8054603480069022188430149086110
:100DD000284630BD0020024004200D49C968C907DB
:100DE000C90F002901D0012010E00949C96810226B
:100DF0001140002901D0022008E00549C9680422F9
:100E00001140002901D0032000E0042070470000B9
:100E1000002002400348006980210843014908611D
:100E2000704700000020024078B506460C460425B5
:100E3000002000900B20000400F03EF80546042D31
:100E400024D1134800690121084311490861348005
:100E50000B20000400F030F80546042D10D1B01C22
:100E60000090200C009908800B20000400F024F86A
:100E7000054607480069400840000549086105E04B
:100E8000034800694008400001490861284678BDD0
:100E9000002002400548006980210840002804D055
:100EA00003480249486003484860704700200240F8
:100EB00023016745AB89EFCD10B503460424FFF746
:100EC0008BFF044603E0FFF787FF04465B1E012CFF
:100ED00001D1002BF7D1002B00D10524204610BDF5
:100EE000F0B50A4600210023002400BF3DE00125A3
:100EF0008D402B4615681D402C469C4234D11579F7
:100F0000012D02D01579022D16D185684F000326D8
:100F1000BE40B543856055794E00B540866835437F
:100F20008560858801268E40B543858085889679C1
:100F30008E40B6B23543858005684F000326BE401B
:100F4000B543056015794E00B54006683543056028
:100F5000C5684F000326BE40B543C560D5794E0035
:100F6000B540C6683543C560491C1029BFD3F0BDE4
:100F7000F0B5002300244D07EE0E1546B5402B4674
:100F8000CD10AE0005462035AD594E07F70E0F26A1
:100F9000BE40B543CE10B60007462037BD51CD1038
:100FA000AE003D46AD591D432C46CD10AD003E462A
:100FB0007451F0BD02460020138A0B40002B01D073
:100FC000012000E000207047018570478161704773
:100FD000002A01D0816100E00185704710B500242E
:100FE00001210920C00600F0D0FA0446204610BDB9
:100FF000F8B5002000900025012700241FE03846A6
:1010000000F082FC8021104800F0BFFA0646012162
:10101000C9020920C00600F0B8FA0090012E03D1E1
:101020000120A0402843C5B20098012803D1211D0A
:1010300088402843C5B27806070E601CC4B2042C51
:10104000DDDB2846F8BD00000004004810B500F0C4
:10105000A1FE0948807A012808D1084880880649FD
:101060008989401A00B20449088104E00348808855
:1010700000B20149088110BDFC0700205C07002078
:1010800000BFFEE770B50646002417E000212046A9
:1010900000F0C1FB0021102000F0BDFB002108463C
:1010A00000F0B9FB002505E00121304600F0B3FB5C
:1010B000681CC5B2802DF7DB601CC4B2082CE5DBD0
:1010C00070BD10B580210920C006FFF77FFF082101
:1010D0000920C006FFF778FF0A2000F063FF08210F
:1010E0000920C006FFF772FF0A2000F05BFF002115
:1010F000AE2000F090FB0021E22000F08CFB0021EC
:10110000A22000F088FB0021A12000F084FB002138
:10111000C02000F080FB0021242000F07CFB022096
:1011200000F040FF0021812000F075FB00212F20FE
:1011300000F071FB022000F035FF0021F82000F0E4
:101140006AFB0021084600F066FB022000F02AFF3F
:1011500000212F2000F05FFB022000F023FF002180
:10116000402000F058FB0020FFF78CFF0021AF204B
:1011700000F051FB10BD0000F7B504460D46029883
:1011800007016907490F244A515CB0221143084600
:1011900001F056FE611C091110221143084601F0AE
:1011A0004FFE611C0807000F01F04AFE002609E00F
:1011B0001A49C95DC943C8B201F049FE781C87B21B
:1011C000701CC6B2082EF3DB681CC5B26907490F54
:1011D000114A515CB0221143084601F031FE611CF6
:1011E000091110221143084601F02AFE611C08076C
:1011F000000F01F025FE002609E00849C95DC9433A
:10120000C8B201F024FE781C87B2701CC6B2082E4A
:10121000F3DB681EC5B2FEBD14000020FC050020F3
:10122000F7B504460D46029807016907490F224A9F
:10123000515CB0221143084601F002FE611C091105
:1012400010221143084601F0FBFD611C0807000F46
:1012500001F0F6FD002607E01849C85D01F0F7FD32
:10126000781C87B2701CC6B2082EF5DB681CC5B2AC
:101270006907490F104A515CB0221143084601F03A
:10128000DFFD611C091110221143084601F0D8FD51
:10129000611C0807000F01F0D3FD002607E0074995
:1012A000C85D01F0D4FD781C87B2701CC6B2082E50
:1012B000F5DB681EC5B2FEBD14000020FC05002051
:1012C000F7B504460D46029847016907490F244ABD
:1012D000515CB0221143084601F0B2FD611C0911B6
:1012E00010221143084601F0ABFD611C0807000FF6
:1012F00001F0A6FD002609E01A49C95DC943C8B23C
:1013000001F0A5FD781C87B2701CC6B2102EF3DB6D
:10131000681CC5B26907490F114A515CB0221143DC
:10132000084601F08DFD611C091110221143084689
:1013300001F086FD611C0807000F01F081FD002609
:1013400009E00849C95DC943C8B201F080FD781CB5
:1013500087B2701CC6B2102EF3DB681EC5B2FEBD8C
:10136000140000201C000020F7B504460D4602982A
:1013700047016907490F224A515CB02211430846D0
:1013800001F05EFD611C091110221143084601F0B5
:1013900057FD611C0807000F01F052FD002607E011
:1013A0001849C85D01F053FD781C87B2701CC6B2A5
:1013B000102EF5DB681CC5B26907490F104A515C55
:1013C000B0221143084601F03BFD611C09111022B7
:1013D0001143084601F034FD611C0807000F01F0BD
:1013E0002FFD002607E00749C85D01F030FD781C9D
:1013F00087B2701CC6B2102EF5DB681EC5B2FEBDEA
:10140000140000201C000020F8B505460F461446C5
:101410001E4610E0002E05D0227839462846FFF7F8
:101420004FFF04E0227839462846FFF79DFF641CF1
:1014300028461030C5B22078FF28EBD1F8BDF8B5AA
:1014400005460E4617461C46002C05D03A46314646
:101450002846FFF735FF04E03A4631462846FFF7B5
:1014600083FFF8BDFFB583B0074615461E46002032
:101470000190029000240090062E00DD0626002D2B
:1014800002DA0095009D6D4200240FE00A212846F3
:10149000FEF798FEC8B201A90855002D04D00A2114
:1014A0002846FEF78FFE0546601CC4B2B442EDDB51
:1014B0000098002807DA39460939C8B20E22049983
:1014C000FFF7AEFE06E039460939C8B20F2204998B
:1014D000FFF7A6FE00240EE0311B491E01AB595C4C
:1014E000091DCAB2E1006118C919C8B20499FFF711
:1014F00097FE601CC4B2B442EEDB07B0F0BDFFB58E
:1015000083B0074616461D46002001900290002435
:10151000062D00DD062500240EE00A213046FEF7E8
:1015200047FE01A80155002E04D00A213046FEF7DF
:101530003FFE0646601CC4B2AC42EEDB00240DE068
:10154000291B491E01AB595C091DCAB2E100C9192A
:10155000C8B20499FFF764FE601CC4B2AC42EFDB72
:1015600007B0F0BDF8B505460E4617461C46002CE0
:1015700005D03A4631462846FFF7FEFD04E03A46DC
:1015800031462846FFF74CFEF8BDF8B505460E4635
:101590000024002731462846FFF70CFD0446012CA5
:1015A0000CD100F0FFFC31462846FFF703FD04464E
:1015B000012C01D1012702E0002700E00027384676
:1015C000F8BD00000020374908810860C86036482F
:1015D0003649086008460068006832490874334894
:1015E0000068001D314908600846006800682D4900
:1015F00088722E480068001D2C4908600846006863
:1016000000682849C88029480068001D27490860EB
:101610000846006800682349087124480068001DD6
:10162000224908601F48007C012806D01D48007C24
:10163000002802D001201B4908741A48807A01282A
:1016400006D01848807A002802D0012015498872F7
:101650001448C0881649884203DC1248C088002814
:1016600002D1C8200F49C8800E480079632803DCE6
:101670000C480079002802D150200A4908710D4811
:101680000A49086008460068006800B205494882B7
:101690001220085E401C002802D1FF20A53048829D
:1016A00070470000FC07002000600008F8070020D9
:1016B0000F270000006400087047000000218278B6
:1016C000002A27D0184A03231B02D21803789B1044
:1016D0009B00D15802789207D30EFF229A400B4606
:1016E0009343194642789207120E03789B07DB0E4C
:1016F0009A4011430C4A03231B02D21803789B1013
:101700009B00D1500278D306DB0E01229A40064B93
:101710001A6007E00278D306DB0E01229A40024BE2
:1017200080331A607047000000E100E010B5002827
:1017300019DA1A4A03071B0F083B9B089B00D25873
:101740008307DC0EFF23A3409A438B071B0E8407FD
:10175000E40EA3401A43114B0407240F083CA408CD
:10176000A4001A5118E00E4A03231B02D218830862
:101770009B00D2588307DC0EFF23A3409A438B07BC
:101780001B0E8407E40EA3401A43054B03242402D6
:101790001B198408A4001A5110BD00001CED00E0C4
:1017A00000E100E070470000002905D0054A5269B9
:1017B0000243044B5A6104E0024A52698243014BDE
:1017C0005A61704700100240002905D0054AD269CD
:1017D0000243044BDA6104E0024AD2698243014BBE
:1017E000DA61704700100240002905D0054A92696D
:1017F0000243044B9A6104E0024A92698243014B1E
:101800009A6170470010024000BF0146421E90B22C
:101810000029FAD1704770B504460E4620210920F0
:10182000C006FFF7D1FB80210920C006FFF7CCFBE3
:10183000002E05D110210920C006FFF7C5FB04E0EA
:1018400010210920C006FFF7C1FB1420FFF7DCFFC1
:10185000002522E080202040002805D040210920DA
:10186000C006FFF7B3FB04E040210920C006FFF7E4
:10187000ABFB6006040E20210920C006FFF7A6FB83
:101880001420FFF7C1FF20210920C006FFF79CFBB1
:101890001420FFF7B9FF681CC5B2082DDADB14204D
:1018A000FFF7B2FF80210920C006FFF78FFB102150
:1018B0000920C006FFF78AFB1420FFF7A5FF70BDC3
:1018C000704710B5002400BF03E0FFF70FFA601C5B
:1018D000C4B20A2CF9DB00F001F810BD70B5002489
:1018E000002500BF04E0FFF701FA0419681CC5B227
:1018F0000A2DF8DB0A212046FEF75AFC0149086050
:1019000070BD00005C07002010B50446E207D20F4E
:1019100040210E48FFF75CFB0220204042080821CE
:101920000A48FFF755FB0420204082080121C90323
:101930000920C006FFF74CFB08202040C208012107
:1019400089020920C006FFF743FB10BD00040048D0
:101950000CB5002001900090314800680121090475
:1019600008432F49086000BF2D4800680121490441
:10197000084000900198401C01900098002804D174
:101980000521090301988842EED12548006801210C
:1019900049040840002802D00120009001E0002006
:1019A00000900098012839D111201E4908601C4878
:1019B00040681B49486008464068486008464068DF
:1019C0007F21C903884316494860084640681121B1
:1019D00009040843124948600846006801210906C5
:1019E00008430F49086000BF0D48006801214906FF
:1019F00008400028F8D00A4840688008800008495C
:101A0000486008464068022108430549486000BF15
:101A1000034840680C2108400828F9D10CBD00009B
:101A2000001002400020024002480068401C0149AA
:101A3000086070471008002010B51B48006801219D
:101A40000843194908600846406818490840164983
:101A5000486008460068164908401349086008466F
:101A600000680121890488430F49086008464068DE
:101A70003F21090488430C4948600846C06A0009B0
:101A80000001C8620846006BFF21543188430649B3
:101A900008630846406B40084000486300208860A7
:101AA000FFF756FF10BD0000001002400CB8FF0801
:101AB000FFFFF6FE10B50221074800F031F80028BC
:101AC00008D00221044800F019F804480078C04307
:101AD0000249087010BD0000002C0140BE07002024
:101AE000002904D0028880231A43028003E0028880
:101AF000014B1A40028070477FFF0000CA430282F8
:101B000070470000002904D0028801231A43028094
:101B100003E00288014B1A4002807047FEFF00007C
:101B200030B50246002000230024158A0D402B46C4
:101B300095890D402C46002B03D0002C01D00120AC
:101B400000E0002030BD002A03D083890B4383814D
:101B500002E083898B4383817047000070B50024C5
:101B600000220023058C1C4E35400584028C83889E
:101B7000048B194D6F3D2C40B51E2C400D882C4315
:101B8000751E2A408D892A434D882A43134DA84249
:101B900008D0134DA84205D0124DA84202D0124DD4
:101BA000A84212D10C4DED1F2A40CD892A430A4D7F
:101BB000ED1E2A408D882A43074DFF3D2B400B4DDB
:101BC0002B400D8A2B434D8A2B43838004838D68E1
:101BD0004563028470BD0000FEFF0000002C014040
:101BE000004001400044014000480140FFFD00006A
:101BF0000A460021018B034B19400B46134319463B
:101C000001837047F7FF000070B500240022002315
:101C1000058C1C4E35400584028C8388848B194DBD
:101C200090352C40174DFD352C400D882C43164D1A
:101C30002A400D7B2D062D0C2A438D782D062D0C68
:101C40002A43124DA84217D1114D2A408D7B2D06F3
:101C50002D0C2A430F4D2A400D792D062D0C2A43B9
:101C60000D4D2B400D4D2B400D8A2D052D0C2B437A
:101C70004D8A2D052D0C2B43838084838D68C5638D
:101C8000028470BDFFFE0000FFFD0000002C01403B
:101C9000FFF70000FFFB0000FFEF0000FFDF000088
:101CA00070B5002200230024058C134E35400584B6
:101CB000038C8488828B114D2A40114D2A400D7867
:101CC0002D062D0C2A430F4D2B400D7B2D072D0C7F
:101CD0002B438D782D072D0C2B430B4DA84205D19E
:101CE0000A4D2C400D8AAD052D0C2C438480828337
:101CF0008D680564038470BDFFEF0000FF8F000056
:101D0000FFFC0000FFDF0000002C0140FFBF0000CF
:101D1000C16370470164704700220288154B9842E6
:101D200006D001239B07984202D0134B984203D15F
:101D3000124B1A404B881A43114B984203D0114B57
:101D40001A400B891A4302804B68C3620B880385D3
:101D5000084B984208D00C4B984205D00B4B984248
:101D600002D00B4B984201D18B7A038601238382E8
:101D700070470000002C0140000400408FFF00006D
:101D800000100040FFFC0000004001400044014002
:101D900000480140F0B589B000240025002600BFAE
:101DA00004E0FEF7A3FF4519701CC6B2052EF8DB50
:101DB00005212846FEF7FCF9044628480068A042A1
:101DC00025D927491220085EFEF7A8FD029020467B
:101DD000FEF7ACFD214901900868FEF7A7FD0090D1
:101DE000019901F0D9F807460299FEF79DFC03908E
:101DF000FEF770FC00221B4B05910490FEF704FCDB
:101E000007910690FEF730FC1449486024E014491D
:101E10001220085EFEF782FD03902046FEF786FD45
:101E20000E4901900868FEF781FD0090019901F0CC
:101E3000B3F802900399FEF777FC0746FEF74AFCD9
:101E40000022084B05910490FEF7EBFB07910690EA
:101E5000FEF70AFC0149486009B0F0BD5C070020AC
:101E6000FC0700200000E03F10B504467D20C000C4
:101E7000844200DB441E012C00DA01242146044880
:101E8000FFF748FF21460248FFF742FF10BD000060
:101E90000004004030B47446641E2578641CAB42D4
:101EA00004D3635D5B00E31830BC18471D46F8E7B8
:101EB00000B589B001210220FFF786FC0121C8028C
:101EC000FFF792FC012168460184002141837D20B7
:101ED000C00007902F2168460183002108A8817067
:101EE00006A92C48FFF718FFFF21013168468182BF
:101EF00070218180022101820121C1800120039093
:101F000001A92448FFF780FE0120039001A9214880
:101F1000FFF7C6FE01211F48FFF7F4FD01211D4810
:101F2000FFF7DEFD012168460184002141831A4844
:101F30000790FF21E03168460183002108A88170E5
:101F400006A91648FFF7E8FE0021684681800121B6
:101F5000C1801348039000216846018201A90F48FF
:101F6000FFF7FCFD00210D48FFF742FE0122022190
:101F70000A48FFF7E8FD00210848FFF7C3FD0E21DE
:101F8000684601700021417001218170FFF796FBC6
:101F900009B000BD000400404FC30000002C014008
:101FA000F29E0000044A1268111800BF024A12682B
:101FB0008A42FBD37047000010080020F8B507469E
:101FC0000D46B02416E0204600F03AFF102000F045
:101FD00037FF002000F034FF002607E0384600F00D
:101FE00036FF284600F033FF701CC6B2802EF5DBAA
:101FF000601CC4B2B82CE6DB0A20FFF7D3FFF8BDA3
:10200000FEF7DEFD08210920C006FEF7DDFF642093
:10201000FFF7C8FF08210920C006FEF7D7FF64209C
:10202000FFF7C0FFFFF74DF800210846FFF7C6FF96
:102030000023FE4A01213220FFF7E6F90023FC4A83
:1020400004210A20FFF7E0F90023FA4A07210220C1
:10205000FFF7DAF9002207212120FFF7E1F8062334
:10206000F54A07212820FFF74AFA0523F34A0721FA
:102070005920FFF744FAFFF724FCFFF7A3FA0121E8
:10208000EF48FFF73FFD7D200001FFF78BFF00BF0A
:1020900000210846FFF792FF0023EA4A01210320AE
:1020A000FFF7B2F9002201213320FFF7B9F800232E
:1020B000E54A03210846FFF7A7F900220321332050
:1020C000FFF7AEF80023E14A05210320FFF79CF952
:1020D000002205213320FFF7A3F80023DC4A072163
:1020E0000320FFF791F9002207213320FFF798F82A
:1020F000002205217220FFF737F900220721722004
:10210000FFF732F9D3480523012102684220FFF787
:10211000A9F9D0480279022303214220FFF7A2F94E
:10212000CC48C288052319464220FFF79BF9C948CD
:102130000822825E052307214220FFF793F914E16C
:1021400000BFC5480088401CC34908800846008875
:102150000A2812DB00200880FEF778FFBD4808221D
:10216000825E052307214220FFF77CF9B948052349
:10217000012102684220FFF775F901214902092077
:10218000C006FEF723FFFF2101310920C006FEF73C
:102190001BFFB048007C012804D11021AF48FEF796
:1021A00013FF03E01021AD48FEF710FFFEF720FFFC
:1021B000AB490870FEF712FFAA490870A8480078DA
:1021C00080280BD1FEF718FC03E0FEF711FFA449AD
:1021D0000870A34800780028F7D1C7E0A04800782D
:1021E000402835D1FEF708FC00209F49088015E003
:1021F000FEF7FEFE9A4908700A20FFF7D3FE9848C2
:102200000078402805D0FFF769FB00209149C8609D
:102210001CE095480088401C93490880924800883B
:10222000C828E5DB00208B4908600846052301210A
:1022300002684220FFF716F903E0FEF7D9FE88494D
:102240000870874800780028F7D100BF00BF8CE0F5
:1022500083480078202816D1FEF7CEFB03E0FEF776
:10226000C7FE7F4908707E4800780028F7D179487A
:10227000007C012803D100207649087475E0012014
:102280007449087471E076480078102803D07548C6
:102290000078002848D1FEF7AFFB03E0FEF7A8FE68
:1022A0006F4908706E4800780028F7D103E0FEF708
:1022B00095FE6C4908706B4800780028F7D0FF2124
:1022C00001310920C006FEF781FE012149020920E3
:1022D000C006FEF779FE5F480089002823D15D48DB
:1022E000C06800281FD100210846FFF767FE0023C1
:1022F0005E4A01211C20FFF787F800235C4A032176
:102300003C20FFF781F800235A4A05211420FFF7EB
:102310007BF80023584A07211C20FFF775F857481F
:10232000FFF740FEB4E61FE34D48007804281CD1B7
:1023300000204D49088010E0FEF75AFE4849087019
:102340000A20FFF72FFE46480078042800D00BE053
:1023500045480088401C4449088043480088FF21C4
:10236000F5318842E8DBF4E300BFE9E6FEF74EFC16
:1023700000210846FFF722FE0023414A01210320E5
:10238000FFF742F8002201215320FEF749FF002306
:102390003C4A03210846FFF737F800220321332087
:1023A000FEF73EFF0023384A05210320FFF72CF8F3
:1023B000002205213320FEF733FF0023334A072193
:1023C0000320FFF721F8002205217220FEF7CCFF41
:1023D0002F480078002801D01D2000E01E20024672
:1023E00001216320FEF7C0FF2948022141560A203F
:1023F000414327480123C356CA1802230321422020
:10240000FFF730F82248062141567D20C00048439E
:102410001F490523CB5664214B43C3181C48042194
:1024200041560A2041435818194933E064070020F7
:10243000670700206F0700202E1002002C460100C5
:10244000002C014072070020760700207A07002048
:102450007E070020FC070020C80700200004004879
:10246000BC070020BD070020C607002098070020F9
:102470009E070020A0070020A7070020B80B00003F
:1024800082070020880700208C070020900700208A
:10249000B50700200323CB56C21804230521422090
:1024A000FEF7E0FF5FE2FEF7A3FDF949087008467A
:1024B000007880285AD1FEF79FFA03E0FEF798FDD6
:1024C000F3490870F24800780028F7D1FEF7E4FBE2
:1024D000FEF7E0FC3420FEF753FCEE48FEF756FC16
:1024E000042801D000BFFEE7EA48EB490860EB484A
:1024F000017CE9480068FEF797FC042801D000BF82
:10250000FEE7E5480068001DE3490860E348817A7A
:10251000E1480068FEF788FC042801D000BFFEE710
:10252000DD480068001DDC490860DC48C188DA48E5
:102530000068FEF779FC042801D000BFFEE7D6480A
:102540000068001DD4490860D4480179D248006869
:10255000FEF76AFC042801D000BFFEE7CE48006801
:10256000001DCD490860FEF755FC91E5C84800788C
:10257000012818D1FEF740FA03E0FEF739FDC449FF
:102580000870C34800780028F7D1C5480078401C7F
:1025900040B2C3490870084600214156062902DDB1
:1025A0000020BF490870BA480078022818D1FEF709
:1025B00023FA03E0FEF71CFDB5490870B448007823
:1025C0000028F7D1B6480078401E40B2B4490870E0
:1025D000084600214156002902DA0620B049087059
:1025E000AB480078042864D1FEF706FA03E0FEF752
:1025F000FFFCA7490870A64800780028F7D1A84931
:1026000008560300FFF746FC07373635341211052C
:102610005300A4480078012803D10020A149087084
:1026200002E001209F49087042E000BF9C49002061
:102630000856001F9B49491C085C401E42B298493D
:1026400000200856001F9749491C0A54944900204D
:102650000856001F9349491C0856002807DA09222A
:102660008F4900200856001F8E49491C0A541FE05C
:1026700000BF00BF00BF8B48C01C894900228A569A
:10268000805C401E41B28748C01C854A0023D35657
:10269000C154114600228A568056002806DA0921C4
:1026A0008048C01C7E4A0023D356C15400E000BFBE
:1026B00000BF77480078082862D1FEF79DF903E053
:1026C000FEF796FC72490870714800780028F7D12F
:1026D000734908560300FFF7DDFB07363534331224
:1026E000110551006F480078012803D100206D4981
:1026F000087002E001206B49087040E000BF6849A3
:1027000000200856001F6749491C085C401C42B263
:10271000634900200856001F6249491C0A54604959
:1027200000200856001F5F49491C0856092806DD8D
:1027300000225B498856001F5A49491C0A541EE072
:1027400000BF00BF00BF5748C01C554900228A5631
:10275000805C401C41B25348C01C514A0023D356F0
:10276000C154114600228A568056092805DD0021F1
:102770004C48C01C4A4A5356C15400E000BF00BF39
:102780004749002008560300FFF784FB07CAAD90B5
:1027900064472605EB004348C078001DC2B2002301
:1027A00005216520FEF7DEFE3E480078002801D0B6
:1027B0001D2000E01E2002463B48037801216320D3
:1027C000FEF73DFE37488078001DC2B2002303218A
:1027D0004220FEF7C7FEC5E032480078002801D04D
:1027E0001D2000E01E200246002301216320FEF789
:1027F00026FE2C488078001DC2B22B4803780321A6
:102800004220FEF7AFFE27484078001DC2B20023E9
:1028100003215320FEF7A6FEA4E022488078001D85
:10282000C2B2002303214220FEF79CFE1D484078DF
:10283000001DC2B21C48037803215320FEF792FE0C
:1028400018488079001DC2B2002305214220FEF7FE
:1028500089FE87E013484078001DC2B2002303219F
:102860005320FEF77FFE0F488079001DC2B20E484C
:10287000037805214220FEF775FE0A484079001DC5
:10288000C2B2002305215320FEF76CFE6AE000006F
:10289000BC07002000600008F8070020FC070020AB
:1028A000C4070020B5070020BE070020FE4880793D
:1028B000001DC2B2002305214220FEF753FEFA4854
:1028C0004079001DC2B2F948037805215320FEF774
:1028D00049FEF5480079001DC2B2002305215C20A5
:1028E000FEF740FE3EE0F0484079001DC2B20023F2
:1028F00005215320FEF736FEEB480079001DC2B2D9
:10290000EA48037805215C20FEF72CFEE648C078F3
:10291000001DC2B2002305216520FEF723FE21E041
:10292000E1480079001DC2B2002305215C20FEF7BA
:1029300019FEDD48C078001DC2B2DC4803780521CD
:102940006520FEF70FFED8480078002801D01D2032
:1029500000E01E200246002301216320FEF76FFDE8
:1029600000E000BF00BF9EE5D148807A012806D173
:10297000FFF710FACF484068CD49C86002E0002058
:10298000CB49C8600020CC490870CC4908800EE0D3
:10299000CA4909880A22514388B2FFF765FA022022
:1029A000FFF700FBC5480088401CC4490880C048A8
:1029B0000079C24909888842EADC8CE0FEF718FBFE
:1029C000BF490870FEF70AFBBE490870BC48007892
:1029D000102803D008460078002817D1FEF70CF81D
:1029E0000020FFF741FA03E0FEF702FBB44908704C
:1029F000B34800780028F7D103E0FEF7EFFAB149B9
:102A00000870B04800780028F7D08BE4FEF71EFB72
:102A1000A7480822825E042307214220FEF722FDF8
:102A2000A348C088A2490989401A00B2A649088073
:102A300008460021415E012911DA0020A2490880E0
:102A4000FFF712FA9A480068401C99490860084646
:102A50000523012102684220FEF704FD3CE09A486C
:102A60000021415E0F2902DD0F2097490880964919
:102A70000020085EFDF752FF05469448016828468D
:102A800000F032FA0446FDF7FFFE00B290490880DC
:102A9000874800790A2148438D4900228A5E904286
:102AA00005DA834800790A21484389490880884823
:102AB0000088002807D086480021415EC82902DA34
:102AC000C820834908808249098888B2FFF7CCF979
:102AD0000A20FFF767FA71E77548007C01287DD16D
:102AE00031E0FEF785FA76490870FEF777FA754906
:102AF000087073480078102803D008460078002832
:102B000017D1FDF779FF0020FFF7AEF903E0FEF7DC
:102B10006FFA6B4908706A4800780028F7D103E023
:102B2000FEF75CFA67490870664800780028F7D01D
:102B30001BE5FEF78BFA5E480822825E042307211C
:102B40004220FEF78FFC5A480821415E0029C8DC6C
:102B500078E07AE000BFFEF74BFA59490870FEF7BB
:102B60003DFA5849087056480078102803D00846A6
:102B70000078002817D1FDF73FFF0020FFF774F918
:102B800003E0FEF735FA4E4908704D4800780028FA
:102B9000F7D103E0FEF722FA4A4908704948007865
:102BA0000028F7D0E1E4FEF751FA41480822825E9E
:102BB000042307214220FEF755FC3D480821415ED1
:102BC000C0684042401D814207DD39490820085E47
:102BD0004049086001204049087000E033E03E4869
:102BE000007801282ED100203B4908703B4800683E
:102BF0007D21C90040183A4908601CE0FEF726FA1A
:102C00002B480822825E042307214220FEF72AFC7B
:102C100027490820085E2F490968401A032809DC63
:102C200023490820085E2B490968401A0221C9433C
:102C3000884200DA8FE729480068294909688842F4
:102C4000DCD391E686E7FFF77CFA00210846FFF720
:102C5000B5F90323642219464920FEF703FC00233B
:102C6000204A03211920FEF7CFFB152203216420FF
:102C7000FEF7D6FA00201C4908803EE0FEF736F841
:102C80001A4908600B4800680968401A184908602A
:102C9000084600687D210901884204DD1248008849
:102CA000401C1149088025E0B5070020BE07002020
:102CB000FC0700205C070020D0070020C807002088
:102CC000BC070020BD070020D2070020CC07002051
:102CD000D4070020E0070020E407002010080020AF
:102CE000D8070020AD070020C6070020E807002015
:102CF000F00700200A20FFF755F9474800883C28D4
:102D0000BCDB112205213120FEF78AFA12220521AF
:102D10003920FEF785FA132205214120FEF780FABB
:102D2000142205214920FEF77BFA012205215120BA
:102D3000FEF776FA012205215920FEF771FA0122E9
:102D400005216120FEF76CFA002034490860324901
:102D500008800BE0FDF7CAFF3049096840182F4989
:102D600008602D480088401C2B4908802A480088AC
:102D70003228EFDB322129480068FDF719FA28498B
:102D8000086028490968264A1268881A6421FDF7F4
:102D90000FFA00B2244908800023244A052131207B
:102DA000FEF732FB36E0FEF723F9214908700846AA
:102DB0000078012829D103E0FEF71AF91C490870B0
:102DC0001B4800780028F7D11749085E1949488246
:102DD000FEF760F83420FDF7D3FF1748FDF7D6FF64
:102DE000042801D000BFFEE71348144908601148C9
:102DF0001221415E11480068FEF716F8042801D040
:102E000000BFFEE7FEF706F8FFE509480078002856
:102E100000D0FAE5C7E70000C6070020E807002059
:102E2000EC0700205C070020F4070020B107002019
:102E3000BC070020FC07002000640008F807002001
:102E400010B5044600212046FEF7E5FC10BD10B584
:102E5000044601212046FEF7DEFC10BD70B50125B9
:102E60000400ED074C4020D4441A01D2001B09197C
:102E7000C60D4B00F2B2FF2A29D01B0E2CD0000247
:102E80000C02D31A2C43DC402843051910D2280A1F
:102E900002D3401C6D0611D0761EF6058019FF2A5C
:102EA00000DA70BDC00DC00570BD694000F07AF851
:102EB00001200543C541521C761CE8E764089C408C
:102EC000C90161408900E7D10124A043E4E71B0E5A
:102ED000440200D0034870BD002AFCD1C00FC007D7
:102EE00070BD00BF0000C07F70B5420064414B0060
:102EF0005C41120E39D01B0E38D0FF2A3CD0FF2B7C
:102F00003AD040024902400A490A060045184E4399
:102F1000000A090AD2184843ED017F3A0104731AE6
:102F20004019190C4318990F04D001215B08490777
:102F30005B1A521CD80904D3401CF50301D19D062D
:102F400007D0FF2A08D2D50506D0E4072043401950
:102F500070BD0125A843F4E7002A01DCE00770BD3D
:102F60002402FF202043C00570BD1B0EFF2A03D0A2
:102F7000FF2B01D0E00770BDFF2645003606B542A5
:102F800006D84D00B54203D8D218FF2A00D0E7E793
:102F9000004870BD0000C07F70B501250400ED073A
:102FA0004C4022D4441A02D26C40001B0919C60DB1
:102FB0004B00F2B2FF2A4BD01B0E50D000020C0285
:102FC000D31A2C43DC40A843051B05D5AD0019D30B
:102FD0006D08761E521E37D0F605280A01D28019D8
:102FE00070BD70416D0603D070BD6940FFF73CFFB6
:102FF0009C4009026140490001D0401E70BD01247F
:10300000A04370BD6D081DD001202B0C01D12D04F3
:1030100010302B0E01D12D0208302B0F01D12D01C4
:10302000001DAB0F01D1AD00801CEB0F01D16D0075
:10303000401C6D00361A121A680AF5054019012A5B
:1030400002DB70BD002070BDC036300AC00770BD05
:103050001B0E440201D1FF2B00D1024870BD002A93
:10306000F0D070BD0000C07F818283848586878810
:10307000898B8C8D8E8F919293959697999A9C9D22
:103080009FA0A2A3A5A7A8AAACAEB0B2B3B5B7B98A
:10309000BCBEC0C2C5C7C9CCCED1D4D7D9DCDFE253
:1030A000E6E9ECF0F3F7FAFEC83000080000002073
:1030B000FC0700009609000890360008FC07002075
:1030C00084060000F80000085006006CDC020001D5
:1030D000101501020304060708090007060504038A
:1030E0000201202027240122FC051019272020009E
:1030F0000101C24448704040407E4141C101070087
:10310000020242330520040202FF0531471004FE8B
:1031100004080642FF501018094A2C08FF082C4AE0
:10312000010EF110101F100041596AC6444A71681F
:103130001006CC30CC020150101C7949494979075E
:1031400001794D4B4979010010102F2949498F0011
:10315000804F49292930601E080640310022262A66
:10316000B262222A2623200020207E8001027C00D9
:10317000007F00007E80100A202F2929FF29292F97
:103180002071100E0204F80412224282FA824222B6
:103190001290100D01061FE020272525FD2525276B
:1031A0002012809A20050202FE520112FEB041C098
:1031B000200A057941414179050404C01011FC0938
:1031C0001102C23408146282010100083022012376
:1031D000A263061004222830B81004047804413198
:1031E00010114040060404047D5501127D0C154168
:1031F0001301F50C12FF0412F53F114010092021B4
:103200002826A0602F20011140100F20212122E24A
:10321000242830E0302824222191100B7F445A6169
:10322000000444444447041140100FFF2010E008FC
:1032300030C00201FE008060188F22100132FF06AC
:10324000119D100F808082868A92E28282828A8615
:103250008380CE1005001F10110112FF0412142FDD
:1032600014040106F8A320082214081422C201C085
:10327000140F08282B2A2A2A3F4A4A4ACB48080812
:10328000B010070AEAAAAAAAFE0427EA0AB0140A9A
:103290001F8060000F4848484FD4567FB82007F879
:1032A000888888F8008351A037405E31435E40A093
:1032B000100A00FF90D0B09EB0D2912115012204D7
:1032C000341005FF020408A12006040604080810B3
:1032D0002AFC15161EB029414BA4643F11F01008BA
:1032E0000204D84042417E6E1804D008062112081C
:1032F0000122FF055A0F8038040418E03A214112D8
:103300001E81173F202827A4634015C1240E020CFC
:10331000F0020282720202C60A32C280140624241B
:10332000257FC439161F26161F701005106080FFF8
:10333000D31300FC5816FC80300E29CA4C784C4A36
:1033400008007E4242427E5943FF920139A210108A
:10335000103352921252331800FE11112141071EF0
:10336000100548484A49D8427E10219E2811090478
:1033700019121490701412151800404281FE751134
:103380004D11511940580B0A721212FF12121202FB
:103390001FF4440A7C4040FF48447800F040670036
:1033A0001F9F33111FD826F8D0116E4C061111F94A
:1033B000010F400321C62004247F44C75D40031849
:1033C000077F4242C24242E441DF140400031C99D9
:1033D00016103141DF180681010202E42631D05275
:1033E000FED0316E200A818284B8848281FF9101EF
:1033F0002812818100004041414244485F604444BA
:10340000424241402B003FD111043E3F0E03011DBB
:1034100001319F1A22421AFE465322029F2807FFBB
:10342000A8A8A8AAA91F140B10109F5212131204C7
:103430001BE8C229601C0D0CF00402FC0102846828
:10344000106884E003100900E8A8ABAAEAAABE0449
:103450001404ABA8E8FF1D7D0342AA011D7F032EC3
:103460000260031C08242821A264222110032D20BD
:1034700003200420407F9D1D74033F7F4070040D96
:103480001C200414041010137D3E1322032B9053B0
:10349000811007E6242428E9098114041864829421
:1034A00017100C3A18071121CA4448531621601C02
:1034B0000A80FF004050484241FEC6041A00F51140
:1034C000601C057F40603FA0031512200E1018F00D
:1034D000101020FF202102E418E4C07F003EDE042B
:1034E000111F510F2202BC51112F003F21051DC198
:1034F0000319863B0400BF15BE21012D4F030D3E6D
:10350000C0031C0440404F20052249A51E49A303C7
:103510001D00052EFF4A041FE02016031EFE900525
:10352000200F04433001405C54F75C425DF4545C6E
:1035300020137E80C05DE3031682C01E248F031615
:1035400021502DB3042C12200044444848507F429F
:10355000E45048444C524242A3054F0303AB05A735
:103560000C0CF9510E42010120060004FC0400037A
:103570002DC4052DD80511101DFB0411241C0607B0
:103580000810100838033C07F008040408F0D103C1
:1035900049E82204232C0400000EBA041DDC0310A9
:1035A000060C14244484301E0CA8033C0B110E009E
:1035B00000180484844438F2032E0C19033F60A0E1
:1035C00066063D2F03252A1E985804238870601C28
:1035D0000411110937031FF088690412F838113FEC
:1035E0002E1618053B007CBE430E11504338445044
:1035F000430F109080078048444488F0D032800107
:103600000912E341AF3C040000CC100421E01DA9E5
:10361000063C0804FC84808084FCD1052DC805404C
:103620000400F80480D1DF352243090F20620830FE
:1036300019F87007D6292929C906651C0F1112FF30
:1036400013141516171819FF1A1BFF66071C06FF1F
:10365000040506FF6907700BFF0A0B09FF0C0D0E2E
:103660002D2E12421F0119851011222324FF25FF40
:10367000262324272829FF2A2B2C25111521217EDA
:10368000FFB1074D6807816A0004298C42000100E0
:04000005080000B53A
:00000001FF
