:020000040800F2
:10000000B00E00203D010008D51600089D10000824
:1000100000000000000000000000000000000000E0
:10002000000000000000000000000000DD180008D3
:100030000000000000000000C1170008451A000879
:100040006D010008000000006D0100086D0100084E
:100050006D0100086D0100086D0100086D010008C8
:10006000000000006D0100086D0100086D0100082E
:100070006D0100086D010008D11A000800000000A1
:100080006D01000800000000000000006D01000884
:100090006D0100086D0100086D0100086D01000888
:1000A0006D0100086D0100086D0100086D01000878
:1000B0006D01000800F002F800F030F80CA030C824
:1000C000083824182D18A246671EAB4654465D46D4
:1000D000AC4201D100F022F87E460F3E0FCCB6466E
:1000E0000126334200D0FB1AA246AB4633431847E1
:1000F0007C3000009C3000000023002400250026F6
:10010000103A01D378C1FBD8520700D330C100D5D3
:100110000B6070471FB51FBD10B510BD00F0E3FBAD
:100120001146FFF7F7FF01F079FF00F0FBFB03B486
:10013000FFF7F2FF03BC00F001FC00000F4880F362
:1001400008880F480168090E0E4A914205D10E48F1
:100150000E4901600E480F4901600F4880470F4863
:100160000047FEE7FEE7FEE7FEE7FEE7FEE70000EA
:100170000B480C490C4A0D4B70470000B00E002094
:10018000040000001F0000001810024001000000E1
:100190000000014000000000551A0008B5000008EA
:1001A000B0080020B00E0020B00A0020B00A0020E5
:1001B000002203098B422CD3030A8B4211D3002364
:1001C0009C464EE003460B433CD4002243088B423E
:1001D00031D303098B421CD3030A8B4201D39446CB
:1001E0003FE0C3098B4201D3CB01C01A52418309BE
:1001F0008B4201D38B01C01A524143098B4201D378
:100200004B01C01A524103098B4201D30B01C01AA2
:100210005241C3088B4201D3CB00C01A524183081C
:100220008B4201D38B00C01A524143088B4201D349
:100230004B00C01A5241411A00D2014652411046A9
:1002400070475DE0CA0F00D04942031000D340421E
:10025000534000229C4603098B422DD3030A8B4254
:1002600012D3FC22890112BA030A8B420CD38901F2
:1002700092118B4208D3890192118B4204D38901D8
:100280003AD0921100E08909C3098B4201D3CB0116
:10029000C01A524183098B4201D38B01C01A5241CB
:1002A00043098B4201D34B01C01A524103098B42CF
:1002B00001D30B01C01A5241C3088B4201D3CB00BA
:1002C000C01A524183088B4201D38B00C01A52419D
:1002D000D9D243088B4201D34B00C01A5241411A74
:1002E00000D20146634652415B10104601D34042A2
:1002F000002B00D54942704763465B1000D3404253
:1003000001B50020C046C04602BD70477047704727
:10031000F0B50C46871A9C410D46861A9D4103D2C2
:10032000C01BA141D21963410D0D1F0DC94EEC1B1D
:10033000AE435CD07F057F0D0026002F51D02D05E8
:10034000AC46A943DD020123ED0A1B051D43202312
:100350001B1B24D41746E740381871412F46E7404D
:10036000CC199D402818314661410C0D27D16144BC
:100370009A4013D50023401C594152000ED1400829
:10038000400001224B005205D34207D3052040070D
:10039000C14201D5B04900E0B0493046F0BD6B0024
:1003A000002A00D001229A181F23203C1B1B01D5D4
:1003B000002302E0E540281871410C0DD7D001243C
:1003C00024050919C407CD0740084908E40F28434C
:1003D0006144002CD5D00024401C61419A40D0D10A
:1003E000CDE76A05520DD9D1C90FC907D5E79C4D94
:1003F0004E00002801D0012400E0002434195F00E1
:10040000002A01D0012600E00026BE19954FAC421B
:100410000CD8AE420AD8B44206D001256D05EC4294
:10042000BCD010461946F0BD9942FCD00020394698
:10043000F0BDF0B51FB40C460F46811A9F4125460A
:10044000861A9D4106D20125ED076F40401ABC4136
:1004500052187B41210D1E0D8D1BAC467D4D8D43E9
:100460007ED075056D0D7CD00D05AE46AC431B03EB
:100470001B0B794D52429D41202366469B1B14D392
:100480001746F740381800260090744160462F4602
:100490000741E41900989D402818664116D471461A
:1004A00071189A4025D5012320E093182A466A4105
:1004B0005200002B00D0521C1E23203E9B1B002B01
:1004C00061DD3541EE1728186641E8D50018764100
:1004D0005B1C9A4000D3401C4B05F3181524E340E5
:1004E00010D3002B52D071467118D30FC01802D30D
:1004F000491C05B0F0BD0123DB079A42F9D1400841
:100500004000F6E701225205B21801D1002853D06D
:100510000123CC0ADB029943891E002A08D1020C70
:1005200003D0020C0004103902E0024600202039FA
:100530000023550B05D112020823550B01D152019E
:100540000D23550C01D112011B1DD50C01D19200B8
:100550009B1C150D01D152005B1C2025EE1A01E0F9
:100560002CE022E00546F54015439840CA1AE10701
:1005700069181305C918002ABBDA032040070818B8
:10058000C10FC9070FE071466118B2E7F1074008D3
:100590000843711071444A000CD001235B059A4254
:1005A000A7D2C90FC9070020A3E74905490D26D1E5
:1005B000002001E00028F4D100219AE7284D6600D0
:1005C000002801D0012100E0002171185F00002AFD
:1005D00001D0012600E00026BE19224FA94210D802
:1005E000AE420ED8B14208D001256D05E94206D0D1
:1005F0001946A802414010467BE79C4201D02146A3
:1006000077E70020394674E710B50C465C4005D505
:100610000124E4076340FFF70CFF10BDFFF778FEED
:1006200010BD30B40C465C4004D50124E40763409F
:1006300030BC6DE630BCFCE670B50124E4076140D7
:100640000D465D4002D4FFF763FE70BD6340FFF7C7
:10065000F0FE70BDFF0700000000F0FF0000F07F1B
:100660000000E0FF0000F87F30B50346CA02400DED
:100670001043164D164C0A1502D02043002A06DB03
:10068000AA1A002A12DDD040FF2A0BDC30BD520529
:10069000520D01D140004008AA1A07D4D040404270
:1006A000FF2A01DD002030BD0028FCDD4A00002BC0
:1006B00001D0012000E00020101801225205D04294
:1006C000F0D8C817C043604030BD00001E040000D1
:1006D000000000800121C9050123411842001B06CA
:1006E000D3185B0E0AD0C1100722D2068918400722
:1006F0005242D14201D5520089187047090208D5EB
:100700000146002A03D0C10FC907002070471046D8
:100710007047420202D000200249704707210905B4
:100720000143F4E70000F87FF0B5FF252D04C6096A
:10073000C209FF2704462E400137CB093E434840FB
:100740002A402B400746002A6BD0002B69D0AA42D2
:1007500067D0AB4265D0002800DA32460125ED05AE
:1007600029432C4309022002090AD21A4B0C7F2488
:10077000E31A434C000A7C44E35C7D2424041219F0
:1007800014145B00A218884201D3521C00E0400000
:1007900049420C465C4324115C43DB016415E318B9
:1007A000040A5C43C502200D0C4644436419250A23
:1007B0005D432303EC0C0D46654300030019EB1861
:1007C0004C42A34201D35B18401CD4052018002BD7
:1007D00007D05B00C91804D3401C002901D1400890
:1007E00040003F2189048A4209D3002A08DC11060F
:1007F000090F04D0032149074018C00FC007F0BDFE
:1008000001224100120689187F2252069142F6D237
:1008100005214907C84201D59010F0BDFF20C00551
:10082000F0BD002F00DA32461648AA4207D2AB428A
:1008300005D21902090E17D0F80FC007F0BDFF2529
:1008400063002D06AB42F9D84900A942F6D8AB4265
:1008500001D1A942F2D0A94201D1002101E06100F9
:100860004908D0050843F0BD1102090EFBD0FF2056
:100870000243D005F0BD0A460146104654E7000089
:10088000B22900000000C07F1F22030C02D10F22FA
:1008900000041CD0030E01D10002083A030F01D15D
:1008A0000001121F830F01D18000921E002801DB7E
:1008B0004000521ED20551180212511819229040C0
:1008C00004D3491C002801D1490849000846704753
:1008D000C10FC90700D04042012292071143D3E75C
:1008E00001218907D0E7754600F024F8AE460500DF
:1008F00069465346C008C000854618B020B5FFF7CA
:1009000037FC60BC00274908B6460026C0C5C0C5F4
:10091000C0C5C0C5C0C5C0C5C0C5C0C5403D4900F3
:100920008D46704710B50446C046C0462046FFF7C6
:10093000FEFB10BD004870475008002001491820F8
:10094000ABBEFEE726000200704770B58D18047834
:10095000401CA207920F01D10278401C231106D13E
:100960000378401C03E00678401C0E70491C521EA0
:10097000F9D1002B15D002780C2634408A1A401C7D
:100980000C2C03D0A401121B9B1C08E00478240249
:10099000121B401CF8E714780C70491C521C5B1E9B
:1009A000F9D5A942D3D3002070BD000010B5202195
:1009B000054800F01BFB642001F002FB20210248E7
:1009C00000F012FB10BD0000000400481CB501211E
:1009D000480400F0F7FE0121880400F0F3FE012135
:1009E0006846017100218171F82000906846C1714C
:1009F0000321417169460920C00600F081FA0021F7
:100A0000684601718171012000906846C171417191
:100A100069460920C00600F073FA0021684601719A
:100A20008171042000906846C171032141716946BB
:100A30000920C00600F064FA012168460171002116
:100A40008171022000906846C1710321417169469D
:100A50000920C00600F054FA02210920C00600F067
:100A6000C3FA002168460171817180200090022143
:100A70006846C1710321417169463D4800F040FA62
:100A800000216846017181710120C002009002219D
:100A90006846C1710321417169460920C00600F012
:100AA0002FFA012168460171002181712120800205
:100AB00000906846C1710321417169460920C00652
:100AC00000F01EFA01216846017100218171482061
:100AD00000906846C171032141716946244800F0C5
:100AE0000FFA0121684601710021817120200090D8
:100AF0006846C1710321417169461D4800F000FA42
:100B0000022168460171002181710320009068462E
:100B1000C171032141716946154800F0F1F90122C4
:100B20000021134800F034FA01221146104800F069
:100B30002FFA012168460171002181710320000212
:100B400000906846C171417169460920C00600F0F5
:100B5000D7F90121684601710021817110200090B0
:100B60006846C17141716946014800F0C9F91CBD70
:100B70000004004810B57D21C9000E480068FFF749
:100B800017FB0446601E0C49884200D90CE0601E29
:100B90000A4948610321081F00F0D6FD00200749DB
:100BA00088610720086100BFFFF710FF01F08EF990
:100BB00010BD000000000020FFFFFF0000E000E08B
:100BC00070B500242D48007C2D4908702B4804790D
:100BD0000A212046FFF7ECFA41B2294881700A2128
:100BE0002046FFF7E5FA48B2254948702348846853
:100BF00024492046FFF7DCFA41B22148C17121495E
:100C00002046FFF7D5FA0D467D21C9002846FFF79B
:100C1000CFFA41B21A4881717D21C9002046FFF701
:100C2000C7FA0D4664212846FFF7C2FA41B21448BC
:100C3000417164212046FFF7BBFA0D460A21284680
:100C4000FFF7B6FA41B20E4801710A212046FFF7BC
:100C5000AFFA48B20A49C8700B480024045F0A2161
:100C60002046FFF7A5FA41B2054841720A21204605
:100C7000FFF79EFA48B20249087270BD18080020BA
:100C80003408002010270000EA0700201B480078E5
:100C90001B490874194880780A2148431749497844
:100CA000401817490871154807214156154848430F
:100CB000124906228A567D21C9004A4382180F48EC
:100CC000052141566420414352180C4804214156E5
:100CD0000A2041435018094903228A5680180849BE
:100CE00088600648092141560A20414303480822EA
:100CF0008256881804490880704700003408002094
:100D00001808002010270000EA07002070B5002511
:100D10000026002402210920C00600F065F900BF6A
:100D200004210920C00600F055F90028F8D100245C
:100D30001BE06D0002210920C00600F057F900BF3A
:100D400000BF00BF04210920C00600F043F9064699
:100D500028463043054602210920C00600F044F928
:100D600000BF00BF00BF601CC4B2182CE1DB002430
:100D700011E002210920C00600F038F900BF00BFD1
:100D800000BF02210920C00600F02EF900BF00BFFD
:100D900000BF601CC4B2032CEBDB284670BD000012
:100DA0000149C860704700000020024030B5044689
:100DB00004250B20000400F08FF80546042D17D100
:100DC0000C480069022108430A4908610846446149
:100DD000006940210843074908610B20000400F026
:100DE0007BF80546034800690221884301490861F0
:100DF000284630BD0020024004200D49C968C907BB
:100E0000C90F002901D0012010E00949C96810224A
:100E10001140002901D0022008E00549C9680422D8
:100E20001140002901D0032000E004207047000099
:100E300000200240034800698021084301490861FD
:100E4000704700000020024078B506460C46042595
:100E5000002000900B20000400F03EF80546042D11
:100E600024D11348006901210843114908613480E5
:100E70000B20000400F030F80546042D10D1B01C02
:100E80000090200C009908800B20000400F024F84A
:100E9000054607480069400840000549086105E02B
:100EA000034800694008400001490861284678BDB0
:100EB000002002400548006980210840002804D035
:100EC00003480249486003484860704700200240D8
:100ED00023016745AB89EFCD10B503460424FFF726
:100EE0008BFF044603E0FFF787FF04465B1E012CDF
:100EF00001D1002BF7D1002B00D10524204610BDD5
:100F0000F0B50A4600210023002400BF3DE0012582
:100F10008D402B4615681D402C469C4234D11579D6
:100F2000012D02D01579022D16D185684F000326B8
:100F3000BE40B543856055794E00B540866835435F
:100F40008560858801268E40B543858085889679A1
:100F50008E40B6B23543858005684F000326BE40FB
:100F6000B543056015794E00B54006683543056008
:100F7000C5684F000326BE40B543C560D5794E0015
:100F8000B540C6683543C560491C1029BFD3F0BDC4
:100F9000F0B5002300244D07EE0E1546B5402B4654
:100FA000CD10AE0005462035AD594E07F70E0F2681
:100FB000BE40B543CE10B60007462037BD51CD1018
:100FC000AE003D46AD591D432C46CD10AD003E460A
:100FD0007451F0BD02460020138A0B40002B01D053
:100FE000012000E000207047018570478161704753
:100FF000002A01D0816100E00185704710B500240E
:1010000001210920C00600F0CEFA0446204610BD9A
:10101000F8B5002000900025012700241FE0384685
:1010200000F080FC8021104800F0BDFA0646012146
:10103000C9020920C00600F0B6FA0090012E03D1C3
:101040000120A0402843C5B20098012803D1211DEA
:1010500088402843C5B27806070E601CC4B2042C31
:10106000DDDB2846F8BD00000004004810B500F0A4
:101070009FFE0848007C012807D1074840680549C1
:101080004969401A0349C86003E0034840680149C0
:10109000C86010BD180800207C07002000BFFEE7D4
:1010A00070B50646002417E00021204600F0C1FB81
:1010B0000021102000F0BDFB0021084600F0B9FB24
:1010C000002505E00121304600F0B3FB681CC5B2E5
:1010D000802DF7DB601CC4B2082CE5DB70BD10B5B9
:1010E00080210920C006FFF781FF08210920C006E2
:1010F000FFF77AFF0A2000F063FF08210920C006ED
:10110000FFF774FF0A2000F05BFF0021AE2000F023
:1011100090FB0021E22000F08CFB0021A22000F0D7
:1011200088FB0021A12000F084FB0021C02000F0FA
:1011300080FB0021242000F07CFB022000F040FF17
:101140000021812000F075FB00212F2000F071FBB1
:10115000022000F035FF0021F82000F06AFB00219A
:10116000084600F066FB022000F02AFF00212F2035
:1011700000F05FFB022000F023FF0021402000F080
:1011800058FB0020FFF78CFF0021AF2000F051FB3F
:1011900010BD0000F7B504460D4602980701690727
:1011A000490F244A515CB0221143084601F002FF66
:1011B000611C091110221143084601F0FBFE611C5D
:1011C0000807000F01F0F6FE002609E01A49C95D84
:1011D000C943C8B201F0F5FE781C87B2701CC6B2D4
:1011E000082EF3DB681CC5B26907490F114A515C30
:1011F000B0221143084601F0DDFE611C09111022E6
:101200001143084601F0D6FE611C0807000F01F0EB
:10121000D1FE002609E00849C95DC943C8B201F002
:10122000D0FE781C87B2701CC6B2082EF3DB681E95
:10123000C5B2FEBD140000201C060020F7B5044610
:101240000D46029807016907490F224A515CB022F6
:101250001143084601F0AEFE611C09111022114332
:10126000084601F0A7FE611C0807000F01F0A2FE6E
:10127000002607E01849C85D01F0A3FE781C87B27C
:10128000701CC6B2082EF5DB681CC5B26907490F91
:10129000104A515CB0221143084601F08BFE611CDC
:1012A000091110221143084601F084FE611C080751
:1012B000000F01F07FFE002607E00749C85D01F03E
:1012C00080FE781C87B2701CC6B2082EF5DB681E43
:1012D000C5B2FEBD140000201C060020F7B5044670
:1012E0000D46029847016907490F244A515CB02214
:1012F0001143084601F05EFE611C091110221143E2
:10130000084601F057FE611C0807000F01F052FE6D
:10131000002609E01A49C95DC943C8B201F051FE6F
:10132000781C87B2701CC6B2102EF3DB681CC5B2E5
:101330006907490F114A515CB0221143084601F078
:1013400039FE611C091110221143084601F032FEDA
:10135000611C0807000F01F02DFE002609E0084976
:10136000C95DC943C8B201F02CFE781C87B2701C5D
:10137000C6B2102EF3DB681EC5B2FEBD14000020FD
:101380001C000020F7B504460D4602984701690786
:10139000490F224A515CB0221143084601F00AFE6F
:1013A000611C091110221143084601F003FE611C63
:1013B0000807000F01F0FEFD002607E01849C85D90
:1013C00001F0FFFD781C87B2701CC6B2102EF5DB51
:1013D000681CC5B26907490F104A515CB02211431D
:1013E000084601F0E7FD611C09111022114308466F
:1013F00001F0E0FD611C0807000F01F0DBFD002695
:1014000007E00749C85D01F0DCFD781C87B2701C5D
:10141000C6B2102EF5DB681EC5B2FEBD140000205A
:101420001C000020F8B505460F4614461E4610E085
:10143000002E05D0227839462846FFF74FFF04E0FA
:10144000227839462846FFF79DFF641C2846103055
:10145000C5B22078FF28EBD1F8BDF8B505460E4699
:1014600017461C46002C05D03A4631462846FFF761
:1014700035FF04E03A4631462846FFF783FFF8BDC2
:10148000FFB583B0074615461E4600200190029026
:1014900000240090062E00DD0626002D02DA0095BD
:1014A000009D6D4200240FE00A212846FEF78AFEC7
:1014B000C8B201A90855002D04D00A212846FEF71C
:1014C00081FE0546601CC4B2B442EDDB00980028E2
:1014D00007DA39460939C8B20E220499FFF7AEFE81
:1014E00006E039460939C8B20F220499FFF7A6FE73
:1014F00000240EE0311B491E01AB595C091DCAB224
:10150000E1006118C919C8B20499FFF797FE601C81
:10151000C4B2B442EEDB07B0F0BDFFB583B00746FE
:1015200016461D460020019002900024062D00DD85
:10153000062500240EE00A213046FEF739FE01A8F8
:101540000155002E04D00A213046FEF731FE064632
:10155000601CC4B2AC42EEDB00240DE0291B491E26
:1015600001AB595C091DCAB2E100C919C8B204999E
:10157000FFF764FE601CC4B2AC42EFDB07B0F0BD05
:10158000F8B505460E4617461C46002C05D03A46CF
:1015900031462846FFF7FEFD04E03A46314628462C
:1015A000FFF74CFEF8BDF8B505460E4600240027AF
:1015B00031462846FFF70EFD0446012C0CD100F001
:1015C000FFFC31462846FFF705FD0446012C01D1FA
:1015D000012702E0002700E000273846F8BD0000A0
:1015E00000203749C86008604861364836490860BD
:1015F0000846006800683249087633480068001DD4
:10160000314908600846006800682D4908742E4872
:101610000068001D2C4908600846006800682849D9
:10162000886029480068001D27490860084600684E
:1016300000682349087124480068001D2249086099
:101640001F48007E012806D01D48007E002802D0D9
:1016500001201B4908761A48007C012806D018484A
:10166000007C002802D001201549087414488068C5
:101670001649884203D812488068002802D1C82041
:101680000F4988600E480079632803DC0C48007914
:10169000002802D150200A4908710D480A49086003
:1016A00008460068006800B2054948831A20085EB1
:1016B000401C002802D1FF20A5304883704700005D
:1016C0001808002000600008140800209F86010010
:1016D000006400087047000000218278002A27D0AB
:1016E000184A03231B02D21803789B109B00D15881
:1016F00002789207D30EFF229A400B469343194675
:1017000042789207120E03789B07DB0E9A40114332
:101710000C4A03231B02D21803789B109B00D15064
:101720000278D306DB0E01229A40064B1A6007E0CE
:101730000278D306DB0E01229A40024B80331A60F6
:101740007047000000E100E010B5002819DA1A4ADD
:1017500003071B0F083B9B089B00D2588307DC0E36
:10176000FF23A3409A438B071B0E8407E40EA3407C
:101770001A43114B0407240F083CA408A4001A5173
:1017800018E00E4A03231B02D21883089B00D2588C
:101790008307DC0EFF23A3409A438B071B0E8407AD
:1017A000E40EA3401A43054B032424021B198408AA
:1017B000A4001A5110BD00001CED00E000E100E0A3
:1017C00070470000002905D0054A52690243044BC6
:1017D0005A6104E0024A52698243014B5A617047E0
:1017E00000100240002905D0054AD2690243044B8B
:1017F000DA6104E0024AD2698243014BDA61704740
:1018000000100240002905D0054A92690243044BAA
:101810009A6104E0024A92698243014B9A617047DF
:101820000010024000BF0146421E90B20029FAD1CA
:10183000704770B504460E4620210920C006FFF708
:10184000D3FB80210920C006FFF7CEFB002E05D177
:1018500010210920C006FFF7C7FB04E01021092072
:10186000C006FFF7C3FB1420FFF7DCFF002522E0D2
:1018700080202040002805D040210920C006FFF725
:10188000B5FB04E040210920C006FFF7ADFB600670
:10189000040E20210920C006FFF7A8FB1420FFF743
:1018A000C1FF20210920C006FFF79EFB1420FFF78F
:1018B000B9FF681CC5B2082DDADB1420FFF7B2FFB0
:1018C00080210920C006FFF791FB10210920C006E6
:1018D000FFF78CFB1420FFF7A5FF70BD704710B514
:1018E000002400BF03E0FFF711FA601CC4B20A2C09
:1018F000F9DB00F001F810BD70B50024002500BF31
:1019000004E0FFF703FA0419681CC5B20A2DF8DBDE
:101910000A212046FEF74CFC0149086070BD00001A
:101920007C07002010B50446E207D20F40210E4884
:10193000FFF75EFB02202040420808210A48FFF71B
:1019400057FB0420204082080121C9030920C0065A
:10195000FFF74EFB08202040C20801218902092020
:10196000C006FFF745FB10BD000400480CB5002081
:1019700001900090314800680121090408432F4973
:10198000086000BF2D48006801214904084000900C
:101990000198401C01900098002804D105210903FA
:1019A00001988842EED12548006801214904084089
:1019B000002802D00120009001E000200090009853
:1019C000012839D111201E4908601C4840681B4974
:1019D0004860084640684860084640687F21C9035F
:1019E00088431649486008464068112109040843A5
:1019F00012494860084600680121090608430F495A
:101A0000086000BF0D480068012149060840002811
:101A1000F8D00A48406880088000084948600846B5
:101A20004068022108430549486000BF03484068F8
:101A30000C2108400828F9D10CBD0000001002401C
:101A40000020024002480068401C014908607047BD
:101A50004008002010B51B480068012108431949BF
:101A6000086008464068184908401649486008461A
:101A700000681649084013490860084600680121BB
:101A8000890488430F490860084640683F210904DB
:101A900088430C4948600846C06A00090001C862D2
:101AA0000846006BFF215431884306490863084605
:101AB000406B40084000486300208860FFF756FFF5
:101AC00010BD0000001002400CB8FF08FFFFF6FE3A
:101AD00010B50221074800F031F8002808D0022193
:101AE000044800F019F804480078C043024908701F
:101AF00010BD0000002C0140DC070020002904D0AC
:101B0000028880231A43028003E00288014B1A40B6
:101B1000028070477FFF0000CA43028270470000C6
:101B2000002904D0028801231A43028003E00288BE
:101B3000014B1A4002807047FEFF000030B502469C
:101B4000002000230024158A0D402B4695890D4066
:101B50002C46002B03D0002C01D0012000E00020F7
:101B600030BD002A03D083890B43838102E083893F
:101B70008B4383817047000070B50024002200234E
:101B8000058C1C4E35400584028C8388048B194DCE
:101B90006F3D2C40B51E2C400D882C43751E2A40ED
:101BA0008D892A434D882A43134DA84208D0134DEE
:101BB000A84205D0124DA84202D0124DA84212D11F
:101BC0000C4DED1F2A40CD892A430A4DED1E2A40B7
:101BD0008D882A43074DFF3D2B400B4D2B400D8A2E
:101BE0002B434D8A2B43838004838D684563028495
:101BF00070BD0000FEFF0000002C014000400140CD
:101C00000044014000480140FFFD00000A46002159
:101C1000018B034B19400B46134319460183704750
:101C2000F7FF000070B5002400220023058C1C4E35
:101C300035400584028C8388848B194D90352C4067
:101C4000174DFD352C400D882C43164D2A400D7B39
:101C50002D062D0C2A438D782D062D0C2A43124D6E
:101C6000A84217D1114D2A408D7B2D062D0C2A43F9
:101C70000F4D2A400D792D062D0C2A430D4D2B407A
:101C80000D4D2B400D8A2D052D0C2B434D8A2D0516
:101C90002D0C2B43838084838D68C563028470BDC3
:101CA000FFFE0000FFFD0000002C0140FFF70000D8
:101CB000FFFB0000FFEF0000FFDF000070B5002217
:101CC00000230024058C134E35400584038C848842
:101CD000828B114D2A40114D2A400D782D062D0C76
:101CE0002A430F4D2B400D7B2D072D0C2B438D7858
:101CF0002D072D0C2B430B4DA84205D10A4D2C402E
:101D00000D8AAD052D0C2C43848082838D6805647B
:101D1000038470BDFFEF0000FF8F0000FFFC000098
:101D2000FFDF0000002C0140FFBF0000C1637047CF
:101D30000164704700220288154B984206D00123A7
:101D40009B07984202D0134B984203D1124B1A4082
:101D50004B881A43114B984203D0114B1A400B8900
:101D60001A4302804B68C3620B880385084B984274
:101D700008D00C4B984205D00B4B984202D00B4B2D
:101D8000984201D18B7A0386012383827047000039
:101D9000002C0140000400408FFF000000100040B4
:101DA000FFFC0000004001400044014000480140A9
:101DB000F0B589B000240025002600BF04E0FEF73E
:101DC000A5FF4519701CC6B2052EF8DB0521284673
:101DD000FEF7EEF9044628480068A04225D92749B5
:101DE0001A20085EFEF774FD02902046FEF778FD8B
:101DF000214901900868FEF773FD0090019901F0F8
:101E00002DF907460299FEF78FFC0390FEF762FC5E
:101E100000221B4B05910490FEF7F6FB07910690FC
:101E2000FEF722FC1449486024E014491A20085E99
:101E3000FEF74EFD03902046FEF752FD0E4901903D
:101E40000868FEF74DFD0090019901F007F9029036
:101E50000399FEF769FC0746FEF73CFC0022084B9D
:101E600005910490FEF7DDFB07910690FEF7FCFB61
:101E70000149486009B0F0BD7C0700201808002027
:101E80000000E03F10B504467D20C000844200DB26
:101E9000441E012C00DA012421460448FFF748FFC4
:101EA00021460248FFF742FF10BD00000004004039
:101EB00030B47446641E2578641CAB4204D3635D61
:101EC0005B00E31830BC18471D46F8E700B589B041
:101ED00001210220FFF786FC0121C802FFF792FCD6
:101EE000012168460184002141837D20C0000790C4
:101EF0002F2168460183002108A8817006A92C487B
:101F0000FFF718FFFF21013168468182702181802F
:101F1000022101820121C1800120039001A92448EE
:101F2000FFF780FE0120039001A92148FFF7C6FEBC
:101F300001211F48FFF7F4FD01211D48FFF7DEFDD9
:101F4000012168460184002141831A480790FF213E
:101F5000E03168460183002108A8817006A916486F
:101F6000FFF7E8FE0021684681800121C180134807
:101F7000039000216846018201A90F48FFF7FCFD8C
:101F800000210D48FFF742FE012202210A48FFF717
:101F9000E8FD00210848FFF7C3FD0E2168460170E7
:101FA0000021417001218170FFF796FB09B000BD4F
:101FB000000400404FC30000002C0140F29E0000CE
:101FC000044A1268111800BF024A12688A42FBD301
:101FD0007047000040080020F8B507460D46B024C1
:101FE00016E0204600F0E6FF102000F0E3FF00209E
:101FF00000F0E0FF002607E0384600F0E2FF284648
:1020000000F0DFFF701CC6B2802EF5DB601CC4B28E
:10201000B82CE6DB0A20FFF7D3FFF8BDFEF7AAFDD8
:1020200008210920C006FEF7DFFF6420FFF7C8FF84
:1020300008210920C006FEF7D9FF6420FFF7C0FF82
:10204000FFF74DF800210846FFF7C6FF0023FE4AC0
:1020500001213220FFF7E6F90023FC4A04210A207F
:10206000FFF7E0F90023FA4A07210220FFF7DAF927
:10207000002207212120FFF7E1F80623F54A072176
:102080002820FFF74AFA0523F34A07215920FFF7D2
:1020900044FAFFF724FCFFF7A3FA0121EF48FFF70A
:1020A0003FFD7D200001FFF78BFF00BF00210846A8
:1020B000FFF792FF0023EA4A01210320FFF7B2F95C
:1020C000002201213320FFF7B9F80023E54A03215C
:1020D0000846FFF7A7F9002203213320FFF7AEF8E7
:1020E0000023E14A05210320FFF79CF90022052186
:1020F0003320FFF7A3F80023DC4A07210320FFF772
:1021000091F9002207213320FFF798F800220521DA
:102110007220FFF737F9002207217220FFF732F90A
:10212000D3480523012102684220FFF7A9F9D048CE
:102130000279022303214220FFF7A2F9CC480523AC
:10214000194682684220FFF79BF9C94805230721F9
:10215000C2684220FFF794F913E100BFC548008828
:10216000401CC4490880084600880A2811DB00206A
:102170000880FEF77BFFBE4805230721C268422086
:10218000FFF77EF9BA480523012102684220FFF7D4
:1021900077F9012149020920C006FEF727FFFF2138
:1021A00001310920C006FEF71FFFB148007E01285B
:1021B00004D11021B048FEF717FF03E01021AE480C
:1021C000FEF714FFFEF724FFAC490870FEF716FF78
:1021D000AB490870A948007880280BD1FEF7E6FBD0
:1021E00003E0FEF715FFA5490870A4480078002811
:1021F000F7D1C7E0A1480078402835D1FEF7D6FBDB
:102200000020A049088015E0FEF702FF9B490870F6
:102210000A20FFF7D5FE99480078402805D0FFF73F
:102220006BFB0020924948611CE096480088401CE6
:102230009449088093480088C828E5DB00208C4931
:10224000086008460523012102684220FFF718F9BB
:1022500003E0FEF7DDFE8949087088480078002811
:10226000F7D100BF00BF8CE084480078202816D149
:10227000FEF79CFB03E0FEF7CBFE804908707F4829
:1022800000780028F7D17A48007E012803D1002089
:102290007749087675E001207549087671E077483E
:1022A0000078102803D076480078002848D1FEF73F
:1022B0007DFB03E0FEF7ACFE704908706F480078C4
:1022C0000028F7D103E0FEF799FE6D4908706C48CD
:1022D00000780028F7D0FF2101310920C006FEF761
:1022E00085FE012149020920C006FEF77DFE6048F7
:1022F000C068002823D15E48406900281FD1002112
:102300000846FFF769FE00235F4A01211C20FFF702
:1023100089F800235D4A03213C20FFF783F800235E
:102320005B4A05211420FFF77DF80023594A072155
:102330001C20FFF777F85848FFF742FEB6E6E1E3C6
:102340004E48007804281CD100204E49088010E037
:10235000FEF75EFE494908700A20FFF731FE474844
:102360000078042800D00BE046480088401C45490E
:10237000088044480088FF21F5318842E8DBFCE30F
:1023800000BFEAE6FEF71CFC00210846FFF724FE2A
:102390000023424A01210320FFF744F800220121D3
:1023A0005320FEF74BFF00233D4A03210846FFF769
:1023B00039F8002203213320FEF740FF0023394A79
:1023C00005210320FFF72EF8002205213320FEF718
:1023D00035FF0023344A07210320FFF723F80022AA
:1023E00007214320FEF72AFF002205217220FEF775
:1023F000C9FF2E480078002801D01D2000E01E20D3
:10240000024601216320FEF7BDFF28480221415604
:102410000A20414325480123C356CA180223032139
:102420004220FFF72DF82148072141562048484314
:102430001E490623CB567D21C9004B43C3181B48B8
:1024400005214156642035E08407002087070020DD
:102450008F0700202E1002002C460100002C0140A6
:1024600092070020960700209A0700209E07002070
:1024700018080020E807002000040048DA070020C0
:10248000DB070020E6070020BD070020C30700206F
:10249000C5070020CC070020B80B0000A2070020D1
:1024A000A8070020AC070020B8070020340800204F
:1024B0001027000041435B18F948042141560A20C7
:1024C00041435818F6490323CB56C2180523194631
:1024D0004220FEF7D5FFF248092141560A20414328
:1024E000EF480823C356CA18022307215220FEF7DB
:1024F000C7FF06E3FEF78CFDEA490870084600783E
:1025000080285AD1FEF752FA03E0FEF781FDE54933
:102510000870E44800780028F7D1FEF7B7FBFEF713
:10252000C9FC3420FEF73CFCDF48FEF73FFC0428E2
:1025300001D000BFFEE7DC48DC490860DC48017ED2
:10254000DA480068FEF780FC042801D000BFFEE7EF
:10255000D6480068001DD5490860D548017CD3489D
:102560000068FEF771FC042801D000BFFEE7CF48E9
:102570000068001DCD490860CD488168CB480068DF
:10258000FEF762FC042801D000BFFEE7C7480068E0
:10259000001DC6490860C6480179C4480068FEF7B6
:1025A00053FC042801D000BFFEE7C0480068001DAE
:1025B000BE490860FEF73EFC78E5BA48007801287D
:1025C00018D1FEF7F3F903E0FEF722FDB5490870D4
:1025D000B44800780028F7D1B6480078401C40B2D3
:1025E000B4490870084600214156092902DD00203F
:1025F000B0490870AB480078022818D1FEF7D6F928
:1026000003E0FEF705FDA7490870A64800780028FA
:10261000F7D1A8480078401E40B2A6490870084685
:1026200000214156002902DA0920A24908709D487C
:10263000007804287ED1FEF7B9F903E0FEF7E8FC44
:1026400098490870974800780028F7D199490856AA
:102650000300FFF72DFC0A5C5B393837363513125F
:10266000067A8F480078012803D100208C49087031
:1026700002E001208A49087068E000BF8D4900200F
:102680000856C01F8649491C085C401E42B2894951
:1026900000200856C01F8249491C0A548549002061
:1026A0000856C01F7E49491C0856002807DA09222F
:1026B000804900200856C01F7949491C0A5445E04A
:1026C00000BF00BF00BF00BF7A4900200856801E2F
:1026D0007349C91C085C401E42B276490020085666
:1026E000801E6F49C91C0A54724900200856801E7A
:1026F0006B49C91C0856002807DA09226D490020D9
:102700000856801E6649C91C0A541FE000BF644871
:102710000830684900228A56805C401E41B26048F9
:102720000830644A0023D356C154114600228A5609
:10273000805600E00BE0002806DA092158480830EE
:102740005C4A0023D356C15400E000BF00BF554887
:10275000007808287ED1FEF729F903E0FEF758FC3F
:10276000504908704F4800780028F7D15149085661
:102770000300FFF79DFB0A5A5938373635341312D8
:10278000067747480078012803D1002044490870A3
:1027900002E001204249087065E000BF4549002081
:1027A0000856C01F3E49491C085C401C42B24149C2
:1027B00000200856C01F3A49491C0A543D490020D0
:1027C0000856C01F3649491C0856092806DD002254
:1027D00038498856C01F3249491C0A5443E000BF9B
:1027E00000BF00BF00BF334900200856801E2C499F
:1027F000C91C085C401C42B22E4900200856801EAD
:102800002749C91C0A542B4900200856801E244918
:10281000C91C0856092806DD002226498856801E54
:102820001F49C91C0A541EE000BF1D480830214939
:1028300000228A56805C401C41B2194808301D4A6B
:102840000023D356C154114600228A5680560928C7
:1028500007DD00E008E0002111480830154A535612
:10286000C15400E000BF00BF124900200856030019
:10287000FFF71EFB0AFEFDE6C9AC8F72553406FC5D
:102880000748007A001DC2B2002307215B20FEF733
:1028900077FE0348007800280ED01D200DE00000D0
:1028A00034080020DA070020006000081408002027
:1028B00018080020E40700201E200246F74803788D
:1028C00001216320FEF7C9FDF5488078001DC2B2E2
:1028D000002303214220FEF753FE11E1F048007867
:1028E000002801D01D2000E01E2002460023012107
:1028F0006320FEF7B2FDEA488078001DC2B2E748C7
:10290000037803214220FEF73BFEE5484078001D96
:10291000C2B2002303214B20FEF732FEF0E0E04874
:102920008078001DC2B2002303214220FEF728FE5A
:10293000DB484078001DC2B2D848037803214B2001
:10294000FEF71EFED648C079001DC2B20023052145
:102950004220FEF715FED3E0D1484078001DC2B2F8
:10296000002303214B20FEF70BFECD48C079001D4C
:10297000C2B2CA48037805214220FEF701FEC848CA
:102980008079001DC2B2002305214B20FEF7F8FD1F
:10299000B6E0C348C079001DC2B200230521422021
:1029A000FEF7EEFDBE488079001DC2B2BB48037839
:1029B00005214B20FEF7E4FDB9484079001DC2B265
:1029C000002305215420FEF7DBFD99E0B44880790F
:1029D000001DC2B2002305214B20FEF7D1FDB048F7
:1029E0004079001DC2B2AD48037805215420FEF79E
:1029F000C7FDAB480079001DC2B2002305215D2050
:102A0000FEF7BEFD7CE0A6484079001DC2B200235F
:102A100005215420FEF7B4FDA1480079001DC2B283
:102A20009E48037805215D20FEF7AAFD9C48C078EA
:102A3000001DC2B2002305216620FEF7A1FD5FE064
:102A400097480079001DC2B2002305215D20FEF7E2
:102A500097FD9348C078001DC2B2904803780521C5
:102A60006620FEF78DFD8E48407A02E047E008E0E0
:102A700024E0001DC2B2002307215220FEF780FD92
:102A80003EE08748C078001DC2B2002305216620C1
:102A9000FEF776FD8248407A001DC2B27F48037877
:102AA00007215220FEF76CFD7D48007A001DC2B25E
:102AB000002307215B20FEF763FD21E07848407A80
:102AC000001DC2B2002307215220FEF759FD7448B1
:102AD000007A001DC2B27148037807215B20FEF71F
:102AE0004FFD6F480078002801D01D2000E01E2017
:102AF0000246002301216320FEF7AFFC00E000BF87
:102B000000BFF7E46748007C012806D1FFF750F9C1
:102B1000654840686349486102E0002061494861B6
:102B2000002062490870624908800EE06049098807
:102B30000A22514388B2FFF7A5F90220FFF740FAB5
:102B40005B480088401C5A4908805648007958491B
:102B500009888842EADC84E0FEF75AFA5549087091
:102B6000FEF74CFA5449087052480078102803D0F8
:102B700008460078002819D100E039E1FDF716FF7A
:102B80000020FFF77FF903E0FEF742FA4949087099
:102B9000484800780028F7D103E0FEF72FFA4649AD
:102BA0000870454800780028F7D005E5FEF75EFA82
:102BB0003C4804230721C2684220FEF761FC3948E3
:102BC000008938498989401A00B23C490880084682
:102BD0000021415E012911DA002038490880FFF701
:102BE00051F930480068401C2E490860084605230A
:102BF000012102684220FEF743FC33E02F48002108
:102C0000415E0F2902DD0F202C4908802B480088E7
:102C10002B490988484300B22A4908802148007995
:102C20000A214843274900228A5E904205DA1D485E
:102C300000790A2148432349088022480088002857
:102C400007D020480021415EC82902DAC8201D496A
:102C500008801C49098888B2FFF714F90A20FFF799
:102C6000AFF979E70F48007E012876D147E0FEF7FB
:102C7000CFF910490870FEF7C1F90F4908700D48E7
:102C80000078102803D00846007800282ED1FDF7E0
:102C90008DFE0020FFF7F6F81AE00000DC070020A8
:102CA00034080020180800207C070020EC070020D2
:102CB000E8070020DA070020DB070020EE070020ED
:102CC000EA070020F0070020FEF7A2F9A8490870E3
:102CD000A74800780028F7D103E0FEF78FF9A5494F
:102CE0000870A44800780028F7D065E4FEF7BEF924
:102CF000A14804230721C2684220FEF7C1FB9E4879
:102D0000C0680028B3DC70E000BFFEF781F9984985
:102D10000870FEF773F997490870954800781028F5
:102D200003D008460078002818D1FDF73FFE0020A8
:102D3000FFF7A8F803E0FEF76BF98D4908708C489F
:102D400000780028F7D103E0FEF758F989490870A8
:102D5000884800780028F7D02EE447E0FEF786F98F
:102D6000854804230721C2684220FEF789FB824878
:102D7000C16840694042401D814206DD7E48C0680E
:102D80007E49086001207E4908707D48007801284E
:102D90002BD100207A4908707A4800687D21C9004B
:102DA00040187949086019E0FEF760F97248042379
:102DB0000721C2684220FEF763FB6F48C0686F4975
:102DC0000968401A032808DC6B48C0686B49096829
:102DD000401A0221C943884200DA96E76948006830
:102DE000694909688842DFD38CE68DE7FFF7B6F9B9
:102DF00000210846FFF7F0F8032364221946492012
:102E0000FEF73EFB0023614A03211920FEF70AFB6F
:102E1000152203216420FEF711FA00205C49088086
:102E200017E0FDF773FF5B4908605B4800680968BD
:102E3000401A5A490860084600687D210901884205
:102E400004DD53480088401C514908800A20FFF7E0
:102E5000B7F84F4800883C28E3DB112205213120D8
:102E6000FEF7ECF9122205213920FEF7E7F91322CB
:102E700005214120FEF7E2F9142205214920FEF741
:102E8000DDF9012205215120FEF7D8F901220521A3
:102E90005920FEF7D3F9012205216120FEF7CEF972
:102EA00000203C4908603A4908800BE0FDF72EFFFE
:102EB0003849096840183749086035480088401C7F
:102EC00033490880324800883228EFDB322131480C
:102ED0000068FDF76DF9324908602F490968304AEA
:102EE0001268881A6421FDF763F900B22D49088041
:102EF00000232D4A05213120FEF794FA36E0FEF733
:102F000087F81B49087008460078012829D103E09A
:102F1000FEF77EF816490870154800780028F7D1AA
:102F20002049085E14494883FDF7C4FF3420FDF7AB
:102F300037FF1E48FDF73AFF042801D000BFFEE727
:102F40001A481B4908600C481A21415E184800685D
:102F5000FDF77AFF042801D000BFFEE7FDF76AFF06
:102F600023E603480078002800D01EE6C7E70000EB
:102F7000DA070020DB07002018080020FC070020EB
:102F80000008002040080020F4070020D20700209D
:102F9000E6070020040800207C0700200C08002021
:102FA0000808002010080020D60700200064000850
:102FB0001408002010B5044600212046FEF739FC15
:102FC00010BD10B5044601212046FEF732FC10BDAD
:102FD00070B501250400ED074C4020D4441A01D2FD
:102FE000001B0919C60D4B00F2B2FF2A29D01B0E97
:102FF0002CD000020C02D31A2C43DC4028430519C4
:1030000010D2280A02D3401C6D0611D0761EF60598
:103010008019FF2A00DA70BDC00DC00570BD69407F
:1030200000F022F801200543C541521C761CE8E758
:1030300064089C40C90161408900E7D10124A04394
:10304000E4E71B0E440200D0034870BD002AFCD107
:10305000C00FC00770BD00BF0000C07F70B5012564
:103060000400ED074C4022D4441A02D26C40001BED
:103070000919C60D4B00F2B2FF2A4BD01B0E50D0DF
:1030800000020C02D31A2C43DC40A843051B05D5D3
:10309000AD0019D36D08761E521E37D0F605280AEA
:1030A00001D2801970BD70416D0603D070BD6940BA
:1030B000FFF794FF9C4009026140490001D0401E87
:1030C00070BD0124A04370BD6D081DD001202B0CE4
:1030D00001D12D0410302B0E01D12D0208302B0F01
:1030E00001D12D01001DAB0F01D1AD00801CEB0FF4
:1030F00001D16D00401C6D00361A121A680AF505E0
:103100004019012A02DB70BD002070BDC036300AB4
:10311000C00770BD1B0E440201D1FF2B00D1024835
:1031200070BD002AF0D070BD0000C07F8182838412
:1031300085868788898B8C8D8E8F919293959697B3
:10314000999A9C9D9FA0A2A3A5A7A8AAACAEB0B235
:10315000B3B5B7B9BCBEC0C2C5C7C9CCCED1D4D730
:10316000D9DCDFE2E6E9ECF0F3F7FAFE8C31000897
:1031700000000020180800004A0900087C370008F9
:103180001808002098060000F80000085006006C9F
:10319000DC020001101501020304060708090007FC
:1031A000060504030201202027240122FC05101932
:1031B000272020000101C24448704040407E414128
:1031C000C1010700020242330520040202FF05315B
:1031D000471004FE04080642FF501018094A2C0844
:1031E000FF082C4A010EF110101F100041596AC649
:1031F000444A71681006CC30CC020150101C794949
:103200004949790701794D4B4979010010102F295F
:1032100049498F00804F49292930601E08064031F6
:103220000022262AB262222A2623200020207E8025
:1032300001027C00007F00007E80100A202F2929D7
:10324000FF29292F2071100E0204F8041222428255
:10325000FA8242221290100D01061FE02027252538
:10326000FD2525272012809A20050202FE52011218
:10327000FEB041C0200A057941414179050404C0EE
:103280001011FC091102C234081462820101000805
:1032900030220123A263061004222830B81004044F
:1032A0007804413110114040060404047D55011298
:1032B0007D0C15411301F50C12FF0412F53F11406E
:1032C000100920212826A0602F20011140100F2076
:1032D000212122E2242830E0302824222191100BE1
:1032E0007F445A61000444444447041140100FFFD6
:1032F0002010E00830C00201FE008060188F22100C
:103300000132FF06119D100F808082868A92E28230
:1033100082828A868380CE1005001F10110112FF61
:103320000412142F14040106F8A320082214081410
:1033300022C201C0140F08282B2A2A2A3F4A4A4ACF
:10334000CB480808B010070AEAAAAAAAFE0427EA8E
:103350000AB0140A1F8060000F4848484FD4567FB7
:10336000B82007F8888888F8008351A037405E317C
:10337000435E40A0100A00FF90D0B09EB0D29121D1
:1033800015012204341005FF020408A120060406DA
:10339000040808102AFC15161EB029414BA4643FEE
:1033A00011F010080204D84042417E6E1804D00883
:1033B000062112080122FF055A0F8038040418E084
:1033C0003A2141121E81173F202827A4634015C1CE
:1033D000240E020CF0020282720202C60A32C2807D
:1033E00014062424257FC439161F26161F701005C5
:1033F000106080FFD31300FC5816FC80300E29CAE1
:103400004C784C4A08007E4242427E5943FF92016A
:1034100039A21010103352921252331800FE1111BB
:103420002141071E100548484A49D8427E10219E76
:103430002811090419121490701412151800404232
:1034400081FE75114D11511940580B0A721212FF6D
:10345000121212021FF4440A7C4040FF48447800D4
:10346000F04067001F9F33111FD826F8D0116E4C13
:10347000061111F9010F400321C62004247F44C71F
:103480005D400318077F4242C24242E441DF140418
:1034900000031C9916103141DF180681010202E475
:1034A0002631D052FED0316E200A818284B88482C7
:1034B00081FF91012812818100004041414244482E
:1034C0005F604444424241402B003FD111043E3FE3
:1034D0000E03011D01319F1A22421AFE4653220299
:1034E0009F2807FFA8A8A8AAA91F140B10109F5275
:1034F000121312041BE8C229601C0D0CF00402FC1C
:1035000001028468106884E003100900E8A8ABAAEF
:10351000EAAABE041404ABA8E8FF1D7D0342AA0179
:103520001D7F032E0260031C08242821A26422218F
:1035300010032D2003200420407F9D1D74033F7F36
:103540004070040D1C200414041010137D3E13223F
:10355000032B9053811007E6242428E909811404E1
:103560001864829417100C3A18071121CA44485362
:103570001621601C0A80FF004050484241FEC604EC
:103580001A00F511601C057F40603FA00315122052
:103590000E1018F0101020FF202102E418E4C07F64
:1035A000003EDE04111F510F2202BC51112F003FBB
:1035B00021051DC10319863B0400BF15BE21012D45
:1035C0004F030D3EC0031C0440404F20052249A577
:1035D0001E49A3031D00052EFF4A041FE020160309
:1035E0001EFE9005200F04433001405C54F75C42FE
:1035F0005DF4545C20137E80C05DE3031682C01E20
:10360000248F031621502DB304181220004444487F
:1036100048507F42E45048444C524242B0380B4438
:103620004C54654546848890810E3C054244C8D080
:10363000A0033C055048C462C3054F0303CB05AB50
:103640000C0C19510E42010120060004FC04000379
:103650002DE4052DF80511101D1B0511241C06076E
:103660000810100858033C07F008040408F0F103A0
:103670004D08032204232C0400000EDA041DFC0371
:1036800010060C14244484301E0CC8033C0B110E8D
:10369000000018048484443812042E0C39033F605F
:1036A000A086063D4F03254A1E9878042388706043
:1036B0001C0411110957031FF088890412F83811EE
:1036C0003F2E16380533007CD0430E11504338444A
:1036D00050430F109080078048444488F0D03280D7
:1036E000010D12030341AF3C040000CC300421E083
:1036F0001DC9063C0804FC84808084FCF1052DE88B
:1037000005400400F80480D1DF352243090F206210
:1037100008301D18037007D6292929C906651C0F12
:103720001112FF13141516171819FF1A1BFF86071D
:103730001C06FF040506FF8907700BFF0A0B09FF33
:103740000C0D0E2D2E12421F011806FF2D2E2F02DA
:10375000AA1011222324FF25FF262324272829FF2E
:103760002A2B2C2A111521266404FF0001AF2523E2
:0C37700000052A000046000100000000D7
:04000005080000B53A
:00000001FF
